:020000040802F0
:1000000010A50020814602084902020849020208A0
:1000100049020208490202084902020800000000E1
:100020000000000000000000000000003D6C02081D
:100030004902020800000000C96C02080D6D0208A8
:10004000490202084902020849020208490202085C
:10005000490202084902020829030208290302088A
:100060002903020829030208290302084902020899
:1000700049020208ADBA030849020208490202080F
:100080002D020208F501020811BF0308DDC30308B1
:10009000F9C3030815C4030831C40308290302087F
:1000A00005C3030859C3030895C3030819BF030810
:1000B00069BF03086DC00308D5C00308F9A203088F
:1000C000B1A20308490202084902020849020208D3
:1000D00049020208A1010208BD0102084902020802
:1000E00029030208F9A5030849020208DDC1030833
:1000F00031C203086DC20308B1C20308A1BA0308E4
:1001000049020208610202083DC1030849020208CF
:100110004902020849020208A5C10308E9030208CE
:10012000490202084902020811020208FD020208FF
:100130004902020849020208490202084DC40308A4
:1001400069C4030885C40308A1C40308490202085E
:10015000A7BA030849020208D901020849020208A5
:100160004902020849020208D9B60308CDB60308BD
:1001700091B60308C1B60308490202084902020801
:040180004902020826
:10018400000002084C3509080000CF0006000300F7
:08019400000000000000000063
:1001A000684620F007018D4601B5034805F01EFBA7
:1001B000BDE80140854670475C090020684620F094
:1001C00007018D4601B5034805F010FBBDE801406D
:1001D0008546704778090020684620F007018D4663
:1001E00001B5034805F01EFBBDE801408546704798
:1001F0005C090020684620F007018D4601B50348E0
:1002000005F010FBBDE801408546704778090020E5
:10021000684620F007018D4601B5034805F028FB2C
:10022000BDE80140854670475C090020684620F023
:1002300007018D4601B5034805F01AFBBDE80140F2
:100240008546704778090020684620F007018D46F2
:10025000024B01B55B6800BE04F074FE00ED00E0E7
:10026000684620F007018D4640F2332219B51B4B3A
:100270005C6B22404AB11A4A012111704FF0FF32E3
:100280009A6318480DF0C6FF24E014F0C00F19D08F
:100290005B691A0506D5124B0121124819700DF041
:1002A000B9FF0CE0104B1B68352B08D10F4B1B78A6
:1002B000012B08BF0E4A0F4B18BF0F4A1A60074B9D
:1002C000C0229A63630205D5044B4FF480029A63FF
:1002D0000FF060FDBDE8194085467047002C0140D5
:1002E000450A0020540A00205C0A0020500A002021
:1002F0007154A308586402403154A308684620F0A2
:1003000007018D4601B5064B4FF07C629A600548A7
:1003100001210DF07FFFBDE801408546704700BF19
:1003200000640240540A0020684620F007018D4610
:10033000294A19B5294B5B685169002947D003F058
:100340003F03103B092B17D007D8072B0ED010D82E
:10035000062B3CD10123002427E0172B0FD0282B9C
:1003600018D00A2B33D1102304241EE002230124C9
:100370001BE00423022418E00823032415E02023B3
:10038000052451690B4210D101340A2C4FEA430372
:10039000F7D10AE04FF480630A2451690B4204D17B
:1003A0000134102C4FEA4303F7D10B4A5361BFF3DA
:1003B0004F8F0B4B13B1E0B21AF02CFE094B0C22FD
:1003C00002FB0434636813B1A06863689847BDE812
:1003D00019408546704700BF003C014000ED00E039
:1003E00015B0030864120020684620F007018D460E
:1003F0004FF6FE72034B01B51A8200BEBDE8014004
:10040000854670470014004000B1807B704708B1FA
:10041000C07B7047FF20704708B1808970474FF656
:10042000FF70704705C8101A704718B1C3685B1A8F
:1004300058425841704707B501238DF8043002AB8C
:1004400043F8080D002201F5876019460EF0AEF85A
:1004500003B05DF804FB07B502238DF8043002AB4E
:1004600043F8080D002201F5876019460EF09EF84A
:1004700003B05DF804FB0000024601F23C40014974
:100480000EF0E5B889040208F8B5066B0446D6F804
:1004900030749FB1C56945B941F2241034F060F859
:1004A000054688B1012384F82030394628460022C9
:1004B00013F08CF82046294613F0D4F93046214633
:1004C000BDE8F8400EF03CBE0820F8BD2DE9FF471E
:1004D00016464FF02C0A0AFB06FA4FF0000800F50A
:1004E0008C69C0F848340546C0F84C8448460F462D
:1004F00002F06BF9504634F033F80446C5F8500466
:1005000000283FD04146524634F07DF8B0450BD22A
:100510002146204602F07BF92146484602F0A2F926
:1005200008F101082C34F1E705F2544002F04DF9CE
:10053000042105F23C400E9A14230EF03BF80146CC
:1005400008BB05F58760082214230DF08DFFD0B994
:100550000D9B05F234408DE8280005210B4A0C4B19
:100560000DF018FF78B90B4B039500930A4B284602
:1005700001930A4B9DF8301002933A4633460EF031
:100580003BFD00E0082004B0BDE8F087647B05086F
:1005900055090208790402085704020837040208C2
:1005A000F0B50E4685B01546002140F26C421C465F
:1005B000074634F028F89DF82830384600930B9B06
:1005C0003146019340F2DC532A4602932346FFF75B
:1005D0007DFF05B0F0BD37B50446002202A9032314
:1005E00041F8082D00F5876004F234458DF8043099
:1005F0000DF0DCFF28460DF0EAFE10B128460DF0A4
:10060000F0FE28460DF0BDFF28460DF0D5FE04F2A1
:100610003C400EF00FF804F58C6002F0E0F804F2B4
:10062000544002F0DCF8D4F8500433F0A1FF00206D
:10063000C4F8500403B030BD012303750020704797
:10064000037D10B5012B044602D00020207510BD9B
:10065000034905220FF07AF90028F6D010BD00BF3B
:100660006F7B05082DE9FF470F460446002116461B
:1006700068460F2298469DF83050DDF8349033F0EC
:10068000C2FF584B53F827A0504634F087FF51461D
:10069000024620460FF05AF9002840F09F8020467D
:1006A000514902220FF052F9002840F09780B9F129
:1006B000000F19D0484634F071FF82464946204663
:1006C00052460FF043F9002840F08880D14419F9D0
:1006D000023C0D2B03D119F9013C0A2B04D0204612
:1006E000414902220FF032F9204640490E220FF014
:1006F0002DF9002872D13E4B53F82590484634F02E
:100700004DFF4946024620460FF020F9002865D1EA
:100710002046354902220FF019F900285ED1B8F1C0
:10072000000F05D00C2F12D120463249112211E0C2
:10073000204631495F220FF009F900284ED12046AA
:10074000294902220FF002F90028EBD046E02046AA
:100750002A4916220FF0FAF800283FD120462249F4
:1007600002220FF0F3F8002838D1637D012B0BD162
:10077000204623491E220FF0E9F878BB20461A498B
:1007800002220FF0E3F848BB237D012B03D1204662
:100790001C491A2218E00B2D05D1204612490222CD
:1007A0000FF0D4F81AE018493246684634F086FE55
:1007B0002046164910220FF0C9F878B9684634F07F
:1007C000EDFE6946024620460FF0C0F830B92046DB
:1007D000054902220FF0BAF80028DED004B0BDE8C7
:1007E000F08700BF787F05083CF00808757B050896
:1007F000BC7F0508E47B0508847B0508F67B0508BB
:100800000D7C05082C7C05081FE30808477C0508BB
:100810007FB504460E46154652B3037D012B18D111
:1008200000210A2201A833F0EEFE13492A4601A84E
:1008300034F044FE01A834F0B1FE01A9024620467E
:100840000FF084F8A8B920460C4902220FF07EF878
:1008500078B9204631462A460FF078F848B9227D0B
:10086000012A06D12046054902220FF06FF800E068
:10087000052004B070BD00BF587C05083CF0080896
:100880002DE9FF4107460E4600250DF10808CDF879
:100890000080304629466FF0004203AB03F09AFF18
:1008A00090B902993846BDF80C20FFF7B1FF044615
:1008B0000299304603F0A4FF2CB9039B1D44002B82
:1008C000E5D1184600E0204604B0BDE8F08107B548
:1008D00001238DF80430036802A9186B41F8083D24
:1008E000002200F587600DF061FE03B05DF804FBA7
:1008F00038B504460D461822002133F084FE00234B
:10090000237520462946BDE838400FF017B80FF090
:100910002DB900002DE9F0410646A0B1DFF8308086
:10092000002558F82570ECB2384634F037FE3946C9
:100930000246304634F03AFE30B101350134102D14
:10094000E4B2EED100E010242046BDE8F08100BF03
:10095000BC7F05082DE9F04F07468FB000F587688A
:1009600097F84434012B00F0BE82404606A94FF0B0
:10097000FF320DF01DFE18B1002306938DF81C30D8
:100980009DF81C30013B032BEAD8DFE803F0074356
:100990002F02384606990EF0D3FBE1E707F25445E3
:1009A0002846B149069A08AB01F043FF044690B9C6
:1009B0000899284601F0CEFF089907F58C6001F0F0
:1009C00051FF08980C30FFF7A2FF08982146243009
:1009D000082233F018FE384606990EF083FA069B7B
:1009E000D8690028BCD093F820306BE007F254445B
:1009F00008A9204601F011FF089939B1204601F0FD
:100A0000A9FF08980C30FFF782FFF1E7012387F870
:100A10004434A5E7069C0022204603A903920492D1
:100A20000EF078FF039B002B9AD007F25446304615
:100A30008D49224604AB01F0FCFE002849D007F5A1
:100A40008C6004A901F02CFF054678B90499304662
:100A500001F008FF049806990C30FFF749FF04984D
:100A600029460822243033F0CEFD32E003980EF000
:100A700016FC08A821460EF061FFC8B97B49202268
:100A800008A80EF063FF7A49022208A80EF05EFF64
:100A900078490E2208A80EF059FF7549022208A8CD
:100AA0000EF054FF08A80FF039F808A80FF05EF810
:100AB000384621460EF016FAE06900283FF450AFA0
:100AC00094F82030012B7FF44BAF043014F066FD16
:100AD00046E700211123049C08918DF82D30032353
:100AE0008DF82E300398E3680591ADF824100A9133
:100AF0008DF82C100C930D91002800F0F0810DF171
:100B00000A03009305AA02AB0EF0EEFB002840F0AA
:100B1000E281D7F84C344BB104F10C0005A902AACC
:100B2000984718B1032840F0D681D8E1BDF80810E5
:100B30000598514A112302F066F8656A8146BDF8AE
:100B4000081045B32B7A042B01D0012B23D1A36AC3
:100B50000BB35B1A9BB2059AA3620A9308AB089287
:100B6000ADF82410009304F10C062B69D5F80CC0E5
:100B7000286800213246E047A36A002B40F0AF818D
:100B8000636A1B7A012B02D13046FFF759FD3046CC
:100B90000EF0C4FFA3E1112940F29A81059D374A66
:100BA0002846092302F02FF80646002800F090811D
:100BB00028463349042233F0F1FC10B98DF82E0099
:100BC00013E028462F49052233F0E8FC20B9012321
:100BD0008DF82E30053509E028462B49042233F0E4
:100BE000DDFC58B902238DF82E300435731B9BB2FF
:100BF0001E46284629464FF0000E10E003238DF8CC
:100C00002E3065E19A4551D00278252A4AD190F9D3
:100C10000120252A0AD101300A7001310130C5EBCB
:100C2000010A1FFA8AFA002EECD140E081F800E0B8
:100C300000F1020C91F900204FEA021A81F800A09D
:100C400010F8012FA2F1300B5FFA8BFBBBF1090FFB
:100C500002D80BEB0A0220E0A2F1610BBBF1050FF9
:100C600014D8573A18E000BF2B0402085C7C050832
:100C70003CF008087D7C0508E47B05088C7C0508B1
:100C8000967C05089B7C0508A17C0508A2F1410B18
:100C9000BBF1050F02D8373A52440A706045C9D1FA
:100CA000033E01E00A70013EB6B2B6E79A460598E7
:100CB000BDF80810974A042301F0A5FF08B9089071
:100CC00006E104300890BDF808100598924A0E23FA
:100CD00001F099FF40B1089B984205D20E30FFF712
:100CE00019FE8DF82D0002E010238DF82D30BDF88F
:100CF00008100598894A1A2301F085FFBDF80810ED
:100D0000064680B1059B089819440122091A8DF8FE
:100D10002C20052389B2824A01F075FF089BC01A76
:100D2000ADF824001FE005987E4A102301F06BFF08
:100D3000A8B10899884212D2BDF80820059B10304E
:100D400013445B1A0A223146ADF8243034F060FDBA
:100D5000BDF82430C01A80B20A90A06203E00023DC
:100D6000ADF82430A3620023D7F84864D34605F8D1
:100D70000A3051462B46184613F8012B3F2A03D060
:100D800051B112B10139F6E731B1C1EB0A0B82461C
:100D900000230AF8013B07E08A4605E02846594649
:100DA00001F0F0FE20B914363268002AF6D1A6E030
:100DB0007068FFF7AFFD9DF82D30984201D0102BE1
:100DC000F1D1337A6662052B00F28280DFE803F00E
:100DD0003003693E20690021012304F10C0B84F8E3
:100DE00020300A460B46009001915846FFF73AFC26
:100DF00008AB00933369D6F80CC0284651465A46D2
:100E0000E047A36A002B63D15846FFF719FC0DE0B9
:100E100008AB009304F10C0B3369D6F80CC02846DC
:100E200051465A46E047A36A002B51D158464DE03F
:100E300000210090019104F10C053269284601233C
:100E4000FFF710FC2846F168326927E004F10C0531
:100E500035490C222846FFF7DBFC3449022228469C
:100E6000FFF7D6FC32490A222846FFF7D1FCF16889
:100E700032692846FFF7CCFC2C4902222846FFF7AE
:100E8000C7FC284910222846FFF7C2FC2949012245
:100E90002846FFF7BDFC28461E490422FFF7B8FC90
:100EA00013E0002104F10C05012384F820300A46E8
:100EB0000B46009001912846FFF7D4FB2846F168C5
:100EC000FFF7DEFC2846FFF7BBFB28460EF026FEA8
:100ED000B9F1000F03D004F10C00FFF7F8FC039800
:100EE0000EF0DDF93CE538460EF02AF840460DF0EC
:100EF000C4FA002005F004F90FB0BDE8F08F04F14A
:100F00000C05092300930192284606211346FFF79A
:100F1000A9FBDAE73AF00808757B05082C7C050880
:100F20006F7B0508477C0508A67C05083CF008088F
:100F3000B37C050880EB080842688168C3681344E5
:100F40005B1AB3FBF2F002FB1030704710B549B1E9
:100F50004378047802338B4204D8944203D0184477
:100F6000C91AF4E7002010BD40F0BF60024B40F406
:100F70000030D860704700BF00ED00E0C3781BB3BD
:100F8000174BDA684378D243C2F30222C2F104015C
:100F9000C9B28B40D9B20F23134182781340027833
:100FA0000B431B0102F16042DBB202F5614282F8A1
:100FB000003303780122590903F01F0302FA03F3F7
:100FC000084A42F821307047037801215A0903F09A
:100FD0001F03994002F12003024A42F82310704790
:100FE00000ED00E000E100E0044B04281A680CBFAB
:100FF00042F0040222F004021A60704710E000E0A0
:101000008368F0B55C0107D483681A0106D483684D
:10101000DB0005D404224FE0002202E0012200E0C0
:10102000022214010319D3F8805105F00105C3F819
:1010300080510D7A35B90F684D7AD3F8806145EA51
:10104000475506E04F68D3F8806145EAC705354348
:101050004E7A3543C3F880518D7A204405F00F0550
:101060008D72D3F8845125F00F05C3F884518E7A20
:10107000D3F884513543C3F884514D7B8E7B2D04C6
:1010800045EA0665CE7A35430E7B45EA0625C0F86B
:10109000885100F5C476487C8C7C000440EA0464E6
:1010A000C87B097C204340EA01217160D3F880119C
:1010B00041F00101C3F880111046F0BD0B0130B5BD
:1010C000C418D4F8B05105F00405EDB2157225B975
:1010D000D4F8B0516D0D156003E0D4F8B051ED08AF
:1010E0005560D4F8B051034405F002055572D4F8A8
:1010F000B45105F00F059572D4F8B441240AD474A4
:10110000D3F8B85103F5DC74D572D3F8B8512D0A71
:101110001573D3F8B8512D0C5573D3F8B8311B0E95
:1011200093736368D37363681B0A137463681B0C3F
:10113000537463681B0E937421B9C36843F0200392
:10114000C36030BD036943F02003036130BD09B9BA
:10115000C06802E0012903D1006900F00300704774
:1011600000207047B1F5807F35D00CD8082924D0F5
:1011700004D801291CD004291DD0704720291FD074
:1011800040291FD07047B1F5006F22D006D8B1F5C5
:10119000007F20D0B1F5806F1DD07047B1F5803F42
:1011A00013D0B1F5003F12D0B1F5004F15D110E0CA
:1011B0000A4B83607047082300E01023C360704728
:1011C000082300E0102303617047082304E0102384
:1011D00002E00023836104234360704701010100A2
:1011E000014B01229A60704700300240064A0123F9
:1011F00019B1116883400B4303E01168834021EA71
:1012000003031360704700BF00740040036811B10E
:1012100043F0010301E023F00103036070474068DD
:1012200080B27047104A114B10B5114CA04294BFC8
:101230001C46144621F0F02323F0C3122AB10068A3
:1012400000F01E0000EAD12202E0406900F08002B6
:1012500089004CBF6068206823F08213184002D0D8
:10126000101C18BF012010BD006402400060024045
:101270000F64024010B5084A084B094CA04294BFC5
:101280001846104611F0005F21F0F02121F0821184
:1012900014BFC160816010BD006402400060024064
:1012A0000F640240837930B54BB30168194BCD43CD
:1012B0001C682C401C605A682A405A60027902F16E
:1012C000804202F59E3214682143116002689C68D6
:1012D000D5432C409C60D9682940D96041791029B8
:1012E00006D1996811439960D9680A43DA6030BD24
:1012F00001F1804303F59E3319680A4308E003793E
:10130000016803F1804303F59E331A6822EA010263
:101310001A6030BD003C0140054B1A685B69034010
:1013200004D0104214BF01200020704718467047B7
:10133000003C0140014B5861704700BF003C014038
:10134000014BC0B218707047003C0240044B1A6851
:1013500010B142F4807201E022F480721A6070478A
:10136000003C024008B51FF095FE054B1A69002AA3
:10137000BFBF044A5A6002F188325A6008BD00BFFC
:10138000003C024023016745034A136943F00043D0
:1013900013611FF0A7BE00BF003C0240044B5A6916
:1013A000D20741BF034A9A6002F144329A60704703
:1013B000003C02403B2A1908024A536943F00103EA
:1013C00053617047003C0240014B188880B270475F
:1013D000163C0240014BD860704700BF003C024001
:1013E0000B4BDA68D1030DD4DA68D2060CD4DA6874
:1013F00012F0EF0F0AD1DB6813F0020F14BF0720C1
:10140000082070470120704705207047062070476C
:10141000003C024007B508238DF80730FFF7E0FFD6
:101420008DF807009DF80730012BF7D09DF80700D5
:1014300003B05DF804FB000070B5064641B1012918
:1014400008D002290CBF4FF400754FF4407503E03B
:101450000D4601E04FF48075FFF7DCFF08281ED130
:101460000F4C236923F440732361216929432161CF
:10147000236923F0F8032361236943F002031E4329
:101480002661236943F480332361FFF7C3FF236997
:1014900023F002032361236923F0F803236170BD65
:1014A000003C024070B505460E46FFF7B3FF082822
:1014B00013D10A4C236923F440732361236943F455
:1014C00000732361236943F0010323612E60FFF75A
:1014D000A1FF236923F00103236170BD003C02409A
:1014E00070B505460E46FFF795FF082811D1094C47
:1014F000236923F44073236123692361236943F043
:10150000010323612E70FFF785FF236923F0010398
:10151000236170BD003C024038B504460D46FFF71C
:1015200079FF08280AD1064A13881DB19BB223EA25
:10153000040002E044EA030080B2108038BD00BF1E
:10154000163C0240034A137843F002031370FFF77E
:1015500061BF00BF143C02402DE9F0430E68002338
:1015600001274FF0030E07FA03F202EA060C944536
:1015700031D15D000EFA05F2D243046814400460D4
:101580000C79D0F8008004FA05F9013C49EA080812
:10159000012CC0F8008016D8846891F805801440AA
:1015A0008460846808FA05F848EA040484604468A2
:1015B00024EA0C0444608C79D0F804C09C40A4B2A6
:1015C00044EA0C044460C4682240C260CA79C4681A
:1015D000AA402243C2600133102BC4D1BDE8F0837E
:1015E0000369194214BF0120002070474369194262
:1015F00014BF01200020704701F00703C90800EB69
:10160000810010B59B00046A0F21994024EA010172
:101610000162016A9A401143016210BD044B1A68CD
:1016200010B142F0040201E022F004021A60704797
:1016300000080650014B9868704700BF000806502C
:10164000034B5B68184214BF01200020704700BFA5
:101650000008065008B5134B984207D14FF400100C
:10166000012100F099FA4FF4001014E00E4B98425B
:1016700007D14FF48000012100F08EFA4FF4800072
:1016800009E00A4B98420BD14FF40000012100F011
:1016900083FA4FF400000021BDE8084000F07CBA56
:1016A00008BD00BF0054004000580040005C0040EE
:1016B0007FB50446868868460D4600F0DBF9029A3D
:1016C0002E4826F03F06B2FBF0F03604360C81B20D
:1016D0000E43A68023882A4E23F001031B041B0C13
:1016E00023802B68B3420AD85B00B2FBF3F30131CD
:1016F0009BB2032B89B298BF0423218423E04BF6CD
:10170000FF71EE888E421BBF19214B4303EB43034D
:10171000B2FBF3F30BBFB2FBF3F39BB29BB243F408
:101720008043C3F30B020AB943F001034FF49671EF
:1017300001FB00F24FF47A7192FBF1F2013292B2A6
:1017400043F400432284A383238869899BB243F036
:10175000010323802388AA8823F4816323F00203F2
:101760001B040A431B0C13439BB223802A89AB89B9
:1017700013439BB2238104B070BD00BF40420F00F1
:10178000A0860100038819B19BB243F0010303E076
:1017900023F001031B041B0C03807047038819B15D
:1017A0009BB243F4807303E023F480731B041B0C8F
:1017B00003807047038819B19BB243F4007303E0C0
:1017C00023F400731B041B0C0380704712B141F01B
:1017D000010101E001F0FE0189B201827047038836
:1017E00019B19BB243F4806303E023F480631B04CC
:1017F0001B0C03807047038829B16FEA43436FEAEB
:1018000053439BB201E0C3F30E0303807047038888
:1018100019B99BB243F0800303E023F080031B045B
:101820001B0C038070470388B1F5006F15BF23F4CC
:1018300000639BB21B0443F4006318BF1B0C0380BE
:10184000704701827047008AC0B2704782B000239F
:1018500001930190019B19440191019B188880B26A
:1018600002B0704783889BB20AB1194301E023EAB2
:10187000010181807047838A10B59AB2038B21F0F1
:101880007F4442EA034304EA0300431A58425841A2
:1018900010BD838A008B9BB243EA004020F07F405A
:1018A000704782B00023009301930B0F01900093C7
:1018B000009B21F07F4113B1019B143302E0019B97
:1018C000090C18330193019B1B68194214BF0120B6
:1018D000002002B070478388808A9BB280B20840A3
:1018E00006D001F0E06113EA114314BF012000208B
:1018F0007047C94389B2818270470000014B18606C
:10190000704700BF00300040014B5860704700BF77
:1019100000300040014B9860704700BF003000402D
:101920004AF6AA22014B1A60704700BF00300040FF
:101930004CF6CC42014B1A60704700BF00300040AB
:10194000014B1860704700BF20000E42014B186029
:10195000704700BFA0000E42074B1A6842F0040215
:101960001A601A6842F002021A60044A136943F0CE
:101970000403136130BF70470070004000ED00E0C9
:10198000034B5B68184214BF01200020704700BF62
:1019900000700040024A136843EA800010607047FC
:1019A00000700040024B00221A701870704700BF90
:1019B00002380240064B002201281A701A7002D029
:1019C000042802D070471870704705221A707047BB
:1019D0007038024010B5029C5B0840EA0460014385
:1019E000013B41EA821242EA0340014B586010BDBC
:1019F00000380240014B1860704700BF600047424A
:101A0000034A936823F0EC631943084390607047DE
:101A100000380240034A936823F0030318439060A0
:101A2000704700BF00380240024B986800F00C007D
:101A3000704700BF00380240034A936823F0F00368
:101A400018439060704700BF00380240034A936813
:101A500023F4E05318439060704700BF0038024001
:101A6000034A936823F4604343EAC00090607047E0
:101A7000003802401D4A10B5936803F00C03042B94
:101A800003D0082B03D01A4B18E01A4B16E051680C
:101A9000536811F4800F516814BF164A144A03F0BA
:101AA0003F03B2FBF3F3114AC1F3881152684B4371
:101AB000C2F3014201325200B3FBF2F30B4A03605E
:101AC00093680D49C3F30313CC5C0368E3404360A0
:101AD0009468C4F382240C5D23FA04F48460926851
:101AE000C2F342328A5CD340C36010BD003802406A
:101AF0000024F40080BA8C018401002000F44073BB
:101B0000094AB3F5407F01BF936820F0704123F488
:101B1000F81321F4407104BF0B439360136FC0F3BB
:101B20000B0018431067704700380240014B1860E3
:101B3000704700BF3C0E4742044B1A6B09B110437B
:101B400001E022EA00001863704700BF003802403D
:101B5000044B5A6B09B1104301E022EA00005863BC
:101B6000704700BF00380240044B1A6C09B11043A3
:101B700001E022EA00001864704700BF003802400C
:101B8000044B5A6C09B1104301E022EA000058648A
:101B9000704700BF00380240044B1A6A09B1104375
:101BA00001E022EA00001862704700BF00380240DE
:101BB000044B5A6A09B1104301E022EA000058625E
:101BC000704700BF003802404209012A074B01D18B
:101BD0001B6803E0022A0CBF1B6F5B6F00F01F0045
:101BE00023FA00F000F00100704700BF0038024007
:101BF00007B5002301933120FFF7E6FF019B013376
:101C00000193019BB3F5A06F01D00028F3D03120E0
:101C1000FFF7DAFF003018BF012003B05DF804FBC6
:101C2000024A536F43F08073536770470038024095
:101C300000230928DAB203F1010302D90A38C0B23D
:101C4000F7E740EA0210C0B27047030903EB8303D1
:101C500000F00F0000EB4300C0B27047002382B0D9
:101C600001930D4BDA68520613D44FF0FF32DA605D
:101C7000D868019A00F0400001320192019AB2F551
:101C8000803F03D1003018BF012003E00028EFD0CF
:101C9000F8E7012002B0704700280040024AD368EC
:101CA00023F08003D36070470028004038B50F4C04
:101CB000CA236362532363620546FFF7CFFF88B1EF
:101CC000A36823F04003A360A2682B681343A360BA
:101CD000AB68236123696A6843EA02432361FFF723
:101CE000DDFF0120014BFF225A6238BD0028004071
:101CF000002382B001930E4BCA225A6253225A62C9
:101D0000DA6822F0A002DA60DA68019902F02002B3
:101D1000013101910199B1F5004F054901D0002A27
:101D2000F2D0C868FF23C0F340104B6202B0704786
:101D300000280040214B70B59B680D4620B913F078
:101D4000400324D1CB7022E013F0400300D1CB70CC
:101D500068782C780002AB7840EA0440EC781843AD
:101D600040EA0444154DCA236B6253236B62FFF7AC
:101D700075FFF8B104F07F3020F0FE402860FFF7D7
:101D80008DFFFFF7B5FF003018BF012012E0287863
:101D9000FFF74EFF04466878FFF74AFF0646A8782B
:101DA000FFF746FFEB7840EA034040EA044343EA8A
:101DB0000624D7E7014BFF225A6270BD002800407D
:101DC0000F4B70B51B680C46C3F30542C3F30626E0
:101DD00003F07F0503F480031B0C0A704E708D70B6
:101DE000CB7058B91046FFF730FF20703046FFF730
:101DF0002CFF60702846FFF728FFA07070BD00BF61
:101E00000028004070B50D4668BB4B78DA0603D554
:101E100023F010030A334B70E878FFF709FF0446FC
:101E20006878FFF705FF0646A878FFF701FF2B78D3
:101E300040EA433040EA044343EA0624114DCA23F2
:101E40006B6253236B62FFF709FFB8B124F07F4048
:101E500020F0C0006860FFF721FFFFF749FF003066
:101E600018BF01200AE04878CC7800028B7840EA5D
:101E700004400C78184340EA4434DFE7014BFF226A
:101E80005A6270BD002800400E4B70B55B680C466E
:101E9000C3F30742C3F3042603F03F05C3F3423301
:101EA000CA704E708D700B7058B91046FFF7CDFE9A
:101EB000E0703046FFF7C9FE60702846FFF7C5FEA8
:101EC000A07070BD00280040264B2DE9F0419B68B2
:101ED0000D46164620B913F0400325D1D37023E0F8
:101EE00013F0400300D1D370B36870681843B3781F
:101EF0001843337840EA0340737840EA0320F378CC
:101F000040EA0340337B40EA0360164BCA225A6220
:101F100053225A62B5F5807F4FF0FF020CBFD861A3
:101F200018625A62BDE8F0813078FFF781FE804682
:101F30007078FFF77DFE0746B078FFF779FE04461C
:101F4000307BFFF775FE7268B3681343F27843EA9B
:101F50000243234343EA084444EA072444EA006076
:101F6000D3E700BF00280040002382B00193134B49
:101F7000CA225A6253225A629A6819B11043986071
:101F8000012016E022EA00029A60000ADA6801994C
:101F90000240013101910199B1F5803F06D1074B13
:101FA000DB68184214BF0120002002E0002AEDD0B7
:101FB000F5E7024BFF225A6202B07047002800404A
:101FC00082B000230193054B0193019B03EB80003A
:101FD0000190019B196002B0704700BF502800407B
:101FE00082B000230193054B0193019B03EB80001A
:101FF0000190019B186802B0704700BF5028004054
:102000000E4BCA2210B55A62532220F004045A62C1
:1020100000F0040031B1996844EA01029A601A6C38
:10202000104306E09A6822EA04029A601A6C22EAD7
:1020300000001864014BFF225A6210BD00280040C6
:10204000054A80B2D36840F0800003F0800363EA61
:102050000003D360704700BF002800400A4910B554
:102060000B6C8A6803F00403CC6803EAD03100EA01
:1020700002030B4306D0A3B213EA101314BF0120CE
:10208000002010BD184610BD00280040054AC0F3CE
:102090000F10D36840F0800003F0800363EA000370
:1020A000D36070470028004008B54FF4006001215C
:1020B000FFF77EFDBDE808404FF400600021FFF708
:1020C00077BD00008368416810B51943C368084CA8
:1020D00019430368626819430369194322F4FD43F5
:1020E00023F07F03027D0B431343636010BD00BFE9
:1020F000002C0140014B1860704700BFA0802542B2
:10210000014B1860704700BF002C0140014B186064
:10211000704700BFA885254208B5154B98420BD1E2
:102120004FF480500121FFF743FDBDE808404FF414
:1021300080500021FFF73CBD0E4B984207D14FF471
:1021400080400121FFF728FD4FF4804009E00A4B51
:1021500098420BD14FF400400121FFF71DFD4FF4D1
:1021600000400021BDE80840FFF716BD08BD00BFD4
:102170000030014000380040003C004003884A889D
:1021800010B503F441540B8813438A881343CA885B
:1021900013430A8913434A8913438A891343CA891B
:1021A000134323439BB20380838B23F400631B04FC
:1021B0001B0C83830B8A038210BD038819B19BB269
:1021C00043F0400303E023F040031B041B0C038097
:1021D0007047808980B2704783889BB20AB11943E7
:1021E00001E023EA0101818070470389194214BF8D
:1021F00001200020704701F0030301F0FC0101F110
:10220000804101F59C3110B59B008C680F229A40EB
:1022100024EA02028A608A68984002438A6010BDFC
:102220001C4A038890429BB212D002F58062904211
:102230000ED0B0F1804F0BD0A2F58032904207D083
:1022400002F58062904203D002F58062904203D191
:102250004A8823F0700313430F4A904208D002F5D6
:10226000806290421FBF23F440730A899BB21343DC
:1022700003804B68C3620B880385064B984203D0EA
:1022800003F58063984201D18B7A03860123838210
:10229000704700BF000001400010004001858282AD
:1022A0007047C1627047038819B19BB243F00203C3
:1022B00003E023F002031B041B0C03807047038818
:1022C00019B19BB243F0800303E023F080031B04A9
:1022D0001B0C03807047038819B19BB243F00103C4
:1022E00003E023F001031B041B0C03807047000074
:1022F000038C70B523F001031B041B0C0384038CB7
:102300008488028B0E8822F073021204120C23F0D0
:10231000020516434B888A892D0413430F4A2D0C5E
:102320002B439042A4B29BB203D002F5806290424C
:102330000ED1CA8923F0080313438A8823F00403CB
:1023400013434D8A0A8A24F4407415432C43A4B2E3
:102350008A68848006834263038470BD0000014064
:10236000038C30B523F010031B041B0C0384038C77
:102370008588028B0C8822F4E6421204120C42EA91
:10238000042223F0200394B21B048A891B0C43EA25
:1023900002134A88ADB243EA0213124A9BB290423A
:1023A00003D002F58062904215D123F08003CA89E0
:1023B0009BB243EA02124FF6BF7313408A8825F49A
:1023C000406543EA02130A8A9BB245EA82054A8ABB
:1023D00045EA8205ADB28A688580048382630384FE
:1023E00030BD00BF00000140038C30B523F4807382
:1023F0001B041B0C0384038C8488828B0D8822F0C1
:1024000073021204120C23F4007315431B048A890F
:102410001B0C43EA02234A88A4B243EA0223124A6D
:102420009BB2904203D002F58062904215D123F412
:102430000063CA899BB243EA02224FF6FF3313407E
:102440008A8824F4405443EA02230A8A9BB244EA6D
:1024500002144A8A44EA0214A4B28A6884808583FA
:10246000C263038430BD00BF00000140038C30B55F
:1024700023F480531B041B0C0384038C8488828BFD
:102480000D8822F4E6421204120C23F4005342EAAF
:1024900005221B048D891B0C43EA05334D88A4B229
:1024A00043EA05330A4D92B2A8429BB203D005F528
:1024B0008065A84205D10D8A24F4804444EA85143D
:1024C000A4B2848082838A680264038430BD00BF22
:1024D000000001404163704781637047C1637047EA
:1024E00001647047038B23F008031B041B0C194382
:1024F00001837047038B23F400631B041B0C43EA26
:10250000012189B201837047838B23F008031B04E8
:102510001B0C194381837047838B23F400631B04D6
:102520001B0C43EA012189B281837047B0F8443023
:1025300029B16FEA43436FEA53439BB201E0C3F30F
:102540000E03A0F84430704783899BB20AB1194347
:1025500001E023EA010181817047038A828911EA3F
:10256000030092B203D0114214BF01200020704733
:10257000C94389B20182704708B5234B984205D1FF
:1025800010200121FFF714FB102037E01F4B984269
:1025900007D14FF400300121FFF7FEFA4FF400306D
:1025A00009E01B4B98420BD14FF480200121FFF72B
:1025B000F3FA4FF480200021BDE80840FFF7ECBAA1
:1025C000144B984207D14FF400200121FFF7E4FAA1
:1025D0004FF40020EFE7104B984207D14FF48010E2
:1025E0000121FFF7D9FA4FF48010E4E70B4B984232
:1025F00009D120200121FFF7DBFA20200021BDE8CE
:102600000840FFF7D5BA08BD001001400044004063
:1026100000480040004C00400050004000140140C1
:102620007FB50E460446038ACA889BB223F4405302
:1026300013430382838909899BB223F4B05323F0A7
:102640000C02B3880B4371890B439BB21343838104
:10265000838AB2899BB223F4407313438382684612
:10266000FFF708FA1B4B9C4203D003F580639C42A2
:1026700001D1039D00E0029DA389A2891BB2002B1A
:102680004FF0190303FB05F335684FF06406B4BF40
:102690006D00AD00B3FBF5F5B5FBF6F000010109E7
:1026A00006FB115312B2002AADBF1A01D900323114
:1026B0003232B5BFB1FBF6F2B2FBF6F302F007021D
:1026C00003F00F03B4BF1043184380B2208104B05D
:1026D00070BD00BF00100140838919B19BB243F463
:1026E000005303E023F400531B041B0C8381704749
:1026F000C1F30801818070478088C0F308007047EB
:10270000038A23F020031B041B0C0382038A9BB261
:10271000194301827047038A19B19BB243F4804385
:1027200003E023F480431B041B0C03827047838A5D
:1027300019B19BB243F0080303E023F008031B0424
:102740001B0C8382704710B5C1F34214012301F0C2
:102750001F01012C03FA01F301D10C3003E0022C1C
:102760000CBF1030143012B10268134302E002684B
:1027700022EA0303036010BD0388194214BF01203D
:1027800000207047012310B5C1F3421401F01F026D
:102790009C4203FA02F201D1838903E0022C0CBFB0
:1027A000038A838A9BB21340028892B23BB1090A22
:1027B00001238B40134214BF0120002010BD184696
:1027C00010BD002070470020704708B528B10021D7
:1027D0000C2231F018FF002008BD052008BD10B5FF
:1027E00098B14468002354B1626823726372A37283
:1027F000E37223716371A371E3711446F3E7214619
:102800000C2231F000FF204610BD052010BD10B194
:102810000160002070470520704740B1036813B97C
:102820000B600C207047436800200B607047052048
:102830007047F8B50D4617461E4688B181B17BB189
:1028400003686BB144684CB120463946A84701285B
:1028500002D134600020F8BD6468F4E70C20F8BDB4
:102860000520F8BDD0B1C9B1036853B9416081609A
:102870000B724B728B72CB720B714B718B71CB7174
:1028800008E000220A714A718A71CA7182688A60FE
:10289000516081600133036000207047052070475C
:1028A00010B538B331B3026822B34368012A0B6014
:1028B0004FF0000308D1037143718371C371037238
:1028C00043728372C37206E0446864684460237292
:1028D0006372A372E3720C68002323726372A372A3
:1028E000E3720968013A0B714B718B71CB71026015
:1028F000184610BD052010BD10B538B331B30268BD
:1029000032B38368012A0B604FF0000308D10371D2
:1029100043718371C371037243728372C37206E0A1
:102920008468A468846023716371A371E3710C6887
:10293000002323726372A372E3720968013A0B7178
:102940004B718B71CB710260184610BD052010BD14
:102950000C2010BD13B5024670B369B304686CB3A4
:10296000012C09D10023037143718371C371037278
:1029700043728372C37212E04368994203D101A982
:10298000FFF78EFF1BE08368994203D101A9FFF78F
:10299000B3FF14E048688B68586048688360002380
:1029A000013C0B724B728B72CB720B714B718B7142
:1029B000CB711846146002E0052000E00C2002B044
:1029C00010BD000010B5064C2378012B05D001F096
:1029D0001FFF0BF017FE01232370002010BD00BF66
:1029E000A4080020F7B50C4E074601A80BF000FD27
:1029F00001993368094ACB1A07D0D2E90045E41897
:102A000045F10005C2E90045316000200CCAC7E964
:102A1000002303B0F0BD00BFA8080020B0080020CC
:102A200070B500211422104831F0EDFD0F480BF075
:102A3000ACFD0D4D0BF016FC0646002455F8242085
:102A400032B113685268F31A934201D901F053FF6F
:102A50000134052CF2D101F0E5FE41F28831034842
:102A60000BF09FFDE6E700BFBC080020B80800207F
:102A70002DE9F0478C46074619469DF8203000287E
:102A800037D0BE460020DFF87880DFF878A01060ED
:102A90004FF00A09C7EB0E00C0B260452ED01EF8F9
:102AA000016BA6F13005ECB2092C19D9A6F141044D
:102AB000052C02D8A6F1370405E0A6F16104052C27
:102AC0001CD8A6F15704E4B2C3B11568B5F1006F84
:102AD00003D399B1B5F1805F10D204EB051406E081
:102AE000002BF2D11568454505D809FB0544146053
:102AF000D0E7BDE8F08709B15545F6D9BDE8F087C4
:102B0000CCCCCC0C9999991907B500930123FFF708
:102B1000AFFF03B05DF804FBF0B50F46184D85B06C
:102B200069680646286801AC03C42889A97A208010
:102B3000A17017B30B2B28BF0B231C460A216EB1C3
:102B400064B1013C04A8E4B20519B6FBF1F001FB45
:102B50001066303605F80C6C0646F0E79A1AA24269
:102B6000B8BFD4B21D1B01AB191938462A4631F043
:102B700024FD00237B55E8B200E0384605B0F0BDE7
:102B800003800508F0B51346044619B900263546FA
:102B9000304618E012F9015B2A2DF7D094F9003085
:102BA0000130AB4201D03F2D29D10139EBE793F938
:102BB00000202A2A0AD15A1C93F901300BB3164679
:102BC000481E651C13460029F1D10FE03F2A03D0AF
:102BD00094F90070974203D15A1C01340139F1E78E
:102BE0002C460146324601350138EBE7013B13F92B
:102BF000010F2A28FBD0B0FA80F04009F0BD002078
:102C0000F0BD0120F0BDF8B517461E46044601444C
:102C10008DB2281B80B2B04207D3204639463246D7
:102C200032F0C4FC18B10134F3E70020F8BD2046AF
:102C3000F8BD0000F0B572B6184F194D396801F1B2
:102C40000D0303F00F0355F8232055F8216001F11F
:102C5000090303F00F0355F8233086EA0646564071
:102C600086EAC23483EAD32686EA040045F82100C6
:102C70000F3101F00F0155F82130396083EA8302EA
:102C80006240424082EA844282EA0673054A02EACE
:102C90004010584045F8210062B6F0BD10090020F0
:102CA000D0080020242D44DA0022134670B590B0DD
:102CB000DB430446251A8D420EDA14F8015B6B40A3
:102CC000082513F0010F4FEA530616BF0D4B33468C
:102CD0007340013DF5D1EDE7DB434DF82230013281
:102CE000102AE5D172B60849002351F823005DF897
:102CF0002320424041F823200133102BF5D162B646
:102D000010B070BD2083B8EDD008002073B5054623
:102D10000C4672B6174B1A68B2F5806F24BFC2F327
:102D200009021A601A6828BF0121224438BF002115
:102D30001A6062B651B101F027FD0F4A02AB12686A
:102D400043F8040D52681846042190470A4E74B1A6
:102D500033681B6898472B1D013CA4B205F8010B92
:102D6000002CF4D09D424FEA1020F5D1EFE7204629
:102D700002B070BD9C010020A001002008B5034BEB
:102D80001B685B689847002008BD00BFA0010020B9
:102D9000F8B50129054616461C46069F13D138464C
:102DA00031F0DEFB2860C0B1002016F09CFB22460B
:102DB00031463B46286801F0A3FF0446002016F088
:102DC0009AFB2046F8BD002016F08DFB304601F03E
:102DD000E3FE204428600020F8BD0420F8BD01294E
:102DE00008B503D130B131F0C3FB03E011B9084697
:102DF00016F081FB002008BD08B505480BF07EFBEE
:102E0000BDE808400348044900220BF020BC00BF85
:102E10003809002034880020B136020838B50B4B41
:102E200018681D4608B131F0A3FB094B18681C4611
:102E300008B131F09DFB074A00232B60136023602B
:102E40000548BDE838400BF0A2BB00BF30090020A8
:102E50005009002014090020540900202DE9F04FEA
:102E6000064689B08A463F4842F21071904699461C
:102E70000BF097FB044620B13A480BF088FB204644
:102E80006CE0394B394D1860394B1860286808B12F
:102E900031F06EFB4FF4167031F062FB28600028B1
:102EA00058D000214FF4167231F0ADFBA8F10203A7
:102EB000304FD3F1000B4BEB030B442087E8400469
:102EC00087F808B031F04CFB2B4E044630600028E8
:102ED0003BD00021442231F096FB002184F83910C8
:102EE000C4F83CA0BBF1000F15D02120079131F0B0
:102EF00037FB224B186018B3044619F801AB079949
:102F000004F801AB2022204631F07DFB20464946E3
:102F1000524631F052FB1A4B002402930094019464
:102F200003960497059440460221224623460FF05B
:102F3000A3F898B1114F386810B131F019FB3C601B
:102F4000306831F015FB00233360286831F010FB46
:102F500000232B6003480BF01AFB042009B0BDE8E6
:102F6000F08F00BF54090020140900203009002010
:102F700044090020180900202409002050090020DD
:102F8000852F02082DE9F041844D06462B680F4637
:102F90009046002B00F0FF800B7A0468012B14D1BF
:102FA0007F4B1968002900F0F6800B7822789A424E
:102FB00040F0F180601C013131F0F0FA002840F05F
:102FC000EA80784B1B68C4F82E3008F1FF33012BE0
:102FD000754920D80C686CB17448396822460BF0EA
:102FE00036FB28B1266C204631F0C2FA3446F2E7AF
:102FF000246CF0E72A686D4882F839803968674E9A
:103000000BF025FB18B1306831F0B2FA3460BDE83E
:10301000F041FFF703BF94F83430012B79D10B68EE
:1030200000227BB393F821E094F82100864526D155
:1030300093F822E094F82200864520D193F823E00B
:1030400094F8230086451AD193F824E094F82400DC
:10305000864514D193F825E094F8250086450ED1D5
:1030600093F826E094F82600864508D112B1196C31
:10307000116400E00A60184631F07AFA02E01A465C
:103080001B6CCEE74A4B4B481B680268062101FBCC
:1030900002318B4227D293F800C094F821E0F44526
:1030A0001FD193F801C094F822E0F44519D193F8A8
:1030B00002C094F823E0F44513D193F803C094F8C8
:1030C00024E0F4450DD193F804C094F825E0F445CC
:1030D00007D193F805C094F826E0F44501D1306893
:1030E00041E00633D5E7632ADFBF54F8211F0132E0
:1030F0001960A188DCBF026099802C4839682A6871
:103100000BF0A5FAB8B3306831F032FA002333601F
:1031100031E00A68134600E01B6C53B393F821E0DA
:1031200094F821008645F7D193F822E094F8220024
:103130008645F1D193F823E094F823008645EBD13E
:1031400093F824E094F824008645E5D193F825E02F
:1031500094F825008645DFD193F826E094F8260000
:103160008645D9D12046BDE8F0410021392231F011
:103170004ABA22640C60442031F0F2F90446286017
:1031800040B10021442231F03EFA002384F8393066
:103190007B68E3633460BDE8F08100BF2409002050
:1031A00050090020A40100201409002034880020C8
:1031B000300900204409002010B5084C00200BF015
:1031C000F3FC20460BF00DF90022204604490BF0D9
:1031D0003EFA044B00221A7010BD00BF3488002054
:1031E000BDEB02084809002038B50A4D2C7854B9C7
:1031F00020460BF0CFFC0848084922460BF027FA7E
:1032000001232B7038BD044805490022BDE8384031
:103210000BF01DBA480900203488002031EC020868
:10322000C1EC020870B5867F1446002E6BD1416850
:103230000C294FD002DC06294CD064E0102902D0C2
:103240002E294ED05FE04388DB0743D52F4B304A11
:103250001B68934237D016DC2E4A934233D007DCEA
:10326000002B50DB012B2BDD48F20102934226E0BC
:1032700029498B4227D001DC284A18E0284A93428A
:1032800021D0023213E0274A93421CD00ADC26499F
:103290008B4218D001DC254A09E0254A934212D01E
:1032A000244A04E0B3F1805F0AD003DC224A93424F
:1032B00029D108E0214A934202D0B3F1005F22D124
:1032C000FFF792FF1FE01E4B01221E481A700BF001
:1032D000F3F818E01C4B1B78012B14D1FFF76CFF9F
:1032E00011E08268B2F5837F0DD1C368B3F5007F2A
:1032F00009D1134D2B78012B05D112480BF0FEF8A4
:10330000FFF772FF2E70204670BD00BFAC01002099
:1033100006004000020020000600200004002000FB
:1033200002004000040040020400200202002002CB
:1033300006002002020040020600400204000010C5
:10334000340900203809002048090020104B10B52E
:103350001B781BB10F4C2378BBB904E00EF072F957
:103360000028F7D010BD0C480BF00FF978B90A48C7
:103370000BF00DF9034650B9084840F6B831084A39
:103380000BF07EF818B901232370002010BD10BD8A
:10339000040200202C0900205409002038090020D4
:1033A000F92D020830B5244B85B01A781D46012A44
:1033B0003ED00BF07FFA014600283AD14FF4537308
:1033C000009302A804220B46FFF7E2FC88BB029898
:1033D0001A4C03780021012B04BFD0F8403323603E
:1033E000FFF7FDFC20680DF029FA044618B10BF038
:1033F000AFFA20461DE0124803A922460EF06DFAEE
:1034000018B903A80421FFF7B9FCFFF79FFF0120BB
:103410000EF08FF805200EF0A0F80A200EF0B1F89B
:1034200001232B70074B00201860074B186000E049
:10343000002005B030BD00BF58090020A8010020C1
:1034400024800508280900204C090020014B187829
:10345000704700BF5809002010B501200CF0C2F9D8
:10346000D8B90CF0BFF9D0B902200CF0BBF9B0B953
:103470000B4C2378012B08D10A480BF050F870B997
:1034800009480BF091F850B92070084B1B78012BBC
:1034900004D1BDE810400EF0B7B810BD002010BD3B
:1034A0002C090020380900205409002004020020C3
:1034B00010B5074C2378012B07D1FFF7CDFF0DF096
:1034C00043FA0BF045FA00232370002010BD00BF23
:1034D00058090020F7B5064610461F460D4614460B
:1034E00032F05CF80097C3B22946304622460FF00E
:1034F000E9FC03B0F0BD0FF007BB00002DE9F0437D
:1035000004469BB0884691460021212202A831F052
:103510007AF82146254611F8012B02A831F04DF822
:103520000BAF04F138033E4628686968083503C6C6
:103530009D423746F7D194F82130BBB994F8223038
:10354000A3B994F823308BB994F8243073B994F864
:1035500025305BB994F8263043B994F92D30D4F86E
:103560002E10012B1ED141F000511BE094F8323097
:10357000002BF2D0002300930BA8494642460EF0E0
:1035800035FC0028E9D10D4B01221A70D4F82E2009
:103590000B4B0C481A6000220B4913460CF0ACFF91
:1035A000002008E00023009320464A4643460EF0E0
:1035B00087FB0028E7D01BB0BDE8F0834809002056
:1035C000AC01002010800508253202082DE9F043E7
:1035D0002B4FA3B0B84603261D243B78002B4BD1BC
:1035E00001254FF0790998F8003003F0FF01002B16
:1035F00040D1CDF8009002A804222B46FFF7C8FB6B
:1036000000283AD10298037853B390F8381000F1AB
:103610003902FFF773FF044610BB0299D1F82E3030
:1036200013F4C00F1CD09A011AD491F83820402A04
:1036300016D09B0014D4792203A830F0BEFF0DF100
:1036400045009DF8441002460DF004FE40B94023A9
:103650008DF8443003A804212A46792301F0B4FBF5
:1036600002980021FFF7BBFB34B140F25E237935AD
:103670009D42B8D1013EB0D1204623B0BDE8F083D1
:103680006888002038B5044600F00305002106488C
:103690000A462B460CF030FF28460DF033FC0CB9DF
:1036A000024B1C70002038BD10800508480900201E
:1036B000F0B50020B3B0FFF7E5FF0326012579231D
:1036C000009303A8002104222B46FFF761FB00288A
:1036D00040F08380039C2378002B70D0234604AFF6
:1036E00004F1380E3A4618685968083303C2734526
:1036F0001746F7D194F82130E3B994F82230CBB9CA
:1037000094F82330B3B994F824309BB994F8253059
:1037100083B994F826306BB903980022D0F82E10A4
:1037200090F83830009200F139020EF0C9FA002802
:1037300045D10EE094F83230002BEDD0002394F800
:10374000382004A8009304F139010EF04FFB002843
:10375000E2D1FFF749FD039B2149D3F82E20214BED
:1037600021481A60002213460CF0C6FE0399D1F8D6
:103770002E3013F4C00F1CD09A011AD491F83820BF
:10378000402A16D09B0014D4792213A830F015FFDC
:103790000DF185009DF8841002460DF05BFD40B9E7
:1037A00040238DF8843013A804212A46792301F0A0
:1037B0000BFB03980021FFF712FB00200DE003989C
:1037C0000021FFF70CFB40F25E2379359D427FF428
:1037D00076AF013E7FF472AF1E2033B0F0BD00BF64
:1037E00025320208AC010020108005080022134693
:1037F000FFF734BB134B102283F80323202283F8F6
:103800003123302283F83B23602283F8252383F879
:103810002623702283F8462383F83A2383F8112362
:1038200083F81023E02283F8062383F8072383F824
:10383000082383F8092383F80A2383F8172383F8DE
:103840002823704700E100E070B50F4C032104F11C
:10385000800604F18805304601F010FF0321284658
:1038600001F00CFF304601F0ABFE284601F0A8FE47
:1038700004F11000012101F001FF04F10800012111
:10388000BDE8704001F0FABE5480050800F1F00375
:1038900000F501701A78FF2A07D08A4207D08342C8
:1038A00007D25A7802321344F4E7FF2901D1981C59
:1038B00070470020704700002DE9F84304460E468B
:1038C000DFF83C8000254FF0060909FB0580214602
:1038D000062230F063FE074650B9084B142404FB5F
:1038E00005340FCC0FC6236838463360BDE8F88333
:1038F0000135052DE9D10C20BDE8F883B40900207D
:10390000940900202DE9F04F8146BD4BB3B01868F3
:103910009A880F9053F8060FADF840209B8821221B
:103920001190002129A8ADF8483030F06CFEFC233E
:103930008DF8A43015A91F2399F82D008DF8A53016
:103940000BF05EFD1AA999F82D00169E0BF0FAFDFA
:103950001B9B32AA19BA42F8A01D1068DA43169DC3
:1039600003922B400493049B013515401D43A54B46
:1039700036BACDF83E000DF1A60203F11C0153F852
:10398000040B8B4242F8040BF9D119889B78118003
:103990009370032213460DF1AD01F0B20E96FFF7BE
:1039A000BBF803222E2413460DF1B1019DF8390016
:1039B0008DF8B040FFF7B0F8032213460DF1B501C2
:1039C0009DF83A008DF8B440FFF7A6F803229DF861
:1039D0003B000DF1B90113468DF8B840FFF79CF894
:1039E000DFF838A299F82C30002B40F0C38109F1A0
:1039F000040808A940464FF0FF320BF055FD014680
:103A00000028EFD107AB009308980DF11A030BAA19
:103A10000BF06AFC0B9890F8F230012B03D0032BCB
:103A200000F08480A2E10CAB009340464FF401719A
:103A300009AA0DAB0BF002FC0446002840F0968169
:103A40000B99F1220D9830F0B8FD08980BF027FC87
:103A50000D98022200F8F02B214640F2131230F0AC
:103A6000D2FD0B9B24A953F81C0F1F909B881FA805
:103A7000ADF88030FFF720FF10B104232493259583
:103A8000259806F0DBFB604A0D9B12681390139893
:103A9000C3F8EC205D4ACDF8466011889278186131
:103AA00083F8F22032AA52F8840DA3F8F01091881E
:103AB000C3F8F300A3F8F71055490DF1A40E0868F8
:103AC0008988C3F8F900A3F8FD100F98BDF84010DD
:103AD000C3F8FF00A3F8031103F205140DF1C40CA1
:103AE000774603CF674520606160BE4604F1080455
:103AF000F6D13978217010689288C3F82C01A3F8A8
:103B00002A21A3F83021062283F82C21414A0321DF
:103B10001268C3F82601C3F83221FF2283F8261168
:103B200083F83621099803F2371112E13621FFF7A5
:103B3000ADFE28B10368169A1BBA9A427FF452AFC1
:103B40000DF11E03009340464FF4017109AA0DAB1D
:103B50000BF074FB002840F0098105900B99F122CD
:103B60000D9830F02AFD0B9904270A4652F81C0FD5
:103B70001390928808463221ADF850202497FFF721
:103B800085FE006806F05CFB259008980BF087FB2B
:103B90000D9C059BA34602220BF8F02B19465846B4
:103BA00040F2131230F02FFD174B13A81B681FA90A
:103BB000C4F8EC30FFF780FE18B11F97209501275D
:103BC00000E0074625A820A9042230F0E7FC38B31E
:103BD000114BCDF846601A889B78A4F8F020119814
:103BE0008BF80230BDF84830C4F8F300A4F8F73081
:103BF0000D98002104221030F93430F004FDA3E0C8
:103C00004C810508618105089C81050858810508DB
:103C10005B810508928105088C81050894090020C4
:103C20005C4BCDF846601A889B78A4F8F0208BF89E
:103C30000230BDF848301198A4F8F730564BC4F85C
:103C4000F3001A689B880F98A4F8FD30BDF8403047
:103C5000C4F8F920A4F80331C4F8FF000DF1A40E54
:103C600004F205130DF1C40C724603CA62451860D4
:103C70005960964603F10803F6D1127804F59B7457
:103C80001A70BDF84830119824F80C3C24F8063C12
:103C9000062344F80A0C04F80A3C404B03221B6834
:103CA00044F8100C44F8043C04F8102C209806F05A
:103CB000C5FA0C900C980D9B012F186107D1169B2B
:103CC000039A01351540049A15439D42F8D0052703
:103CD0004FF0000B324B062202FB0B3C13A960464F
:103CE000CDF814C030F05AFCDDF814C020B92D4ACC
:103CF000142707FB0B271FE0052F07D160462A4931
:103D0000062230F04BFC002808BF5F460BF1010B88
:103D1000BBF1050FDED1052F32D006237B4332AA3B
:103D200052F87C0D0AEB03014AF803009388142231
:103D30008B801C4B02FB07370DF17C0EBEE80F0099
:103D40000FC7DEF800303B602146FF2301F8013B3E
:103D500009980BF0A9FA404614494422099B0BF03C
:103D600039FC00283FF43EAE099800E008980BF0BB
:103D700096FA37E6002002F0C3F933B0BDE8F08FC1
:103D80001398BDF85030CAF80000AAF80430054F67
:103D9000D2E700BF8F8105085B8105089281050885
:103DA00094090020B409002096810508548805086C
:103DB00037B505460A4685F82D10043043210BF02F
:103DC00031FB0446A8B921461E220B4830F01BFCEB
:103DD00021466422094830F016FC4FF4A0638DE8B8
:103DE000280085F82C4028460521054A054B0AF095
:103DF000D1FA204603B030BD94090020B409002058
:103E00008181050805390208012310B580F82C309E
:103E100004460AF0DCFA40B120460AF0E2FA2046F5
:103E20000AF0AFFB20460AF0C7FA201D0BF064FB36
:103E3000002010BD84B030B503AC84E80F000B4AFD
:103E40001368012B9FBF591C1160094A14249FBF9E
:103E500004FB032403AD0FCD0FC49DBF2B680020CE
:103E600023600420BDE8304004B07047400A0020C1
:103E7000180A002008B500212822034830F0C3FBAF
:103E8000024B0020186008BD180A0020400A0020DC
:103E900043890289013393420CDA43680A0A1A7093
:103EA0004368597043680233436043890233438156
:103EB000002070471F20704742688A420BD2137857
:103EC0004BB113F0C00F02D0531C436003E0013329
:103ED00013444360F0E74368013343608B428CBF77
:103EE0000420002070472DE9F8431646044601449B
:103EF000034600208B4202D30020BDE8F8831D78E2
:103F00009DB115F0C00F0AD05A1C91424FEA052509
:103F1000F2D95B782B44C3F30D033344EAE7013055
:103F20002844013580B22B44E4E70028E4D030F087
:103F300017FB05460028DFD003464FF02E092278F4
:103F400012B312F0C00F0AD0217811F0C00F06D0C2
:103F5000627802EB0124C4F30D043444F4E72778BB
:103F600004F1010818463A46414630F026FB034664
:103F700018F807203B4408EB07041AB183F80090B7
:103F80000133DCE71A70DAE72846BDE8F8832DE94B
:103F9000F843894604460C250021904600682A46CD
:103FA0001F4630F030FB4846266806F041F9308065
:103FB0004046266806F03CF970803846266806F0D0
:103FC00037F9B080BDF82400266806F031F9308159
:103FD000BDF82000266806F02BF9F080BDF8280017
:103FE000266806F025F900237081A572E372BDE80A
:103FF000F88370B591F90030C3B10E46421C357894
:10400000741A2E2D3346E4B206F1010607D104706E
:1040100093F9000019462E2806D1591C04E0002D02
:10402000F5D002F8015BEAE71046E3E770BD70B532
:10403000044608460E4631F0B1FA638922890233FC
:104040001844904210D831466068FFF7D2FF00252F
:10405000431C63600570304631F0A0FA6389023377
:1040600018446081284670BD1F2070BDE0B505462C
:1040700016461F46FFF7DBFF50B928463946FFF7C3
:1040800007FF28B928463146BDE8E040FFF700BFEA
:10409000E0BD008806F0CCB8006806F0CFB82DE986
:1040A000D8411646426804461A60026888465A603B
:1040B000FFF702FF074608B104271AE06068FFF720
:1040C000E8FF308060680230FFF7E3FF70806068CF
:1040D0000430FFF7E1FF706060680830FFF7D9FF38
:1040E000308163680A33C6F80A300344434563608D
:1040F000E2D83846BDE8D8812DE9F04F8146B3B00B
:1041000008910592002114221DA830F07CFA48463F
:1041100031F044FA002105460A4628A80BF082F93E
:10412000824610B14FF0040AC2E1059BADB2002BEC
:1041300000F08E8156461035DFF81083ADB2D8F806
:1041400000309E427ED218AC009428A8294615AAB9
:104150001AAB0BF073F80746002867D1BDF8603042
:10416000ADF87200ADF870301A9B02210C330DF1DE
:104170004E001B93FEF7CAFDBDF84E100097019745
:1041800002971AA84FF480720123FFF700FF012263
:10419000134649461AA8FFF769FF1B9915980BF0BB
:1041A00083F8A94B142707FB063728A83946352280
:1041B000159B0BF00FFA002832D122A901220BF037
:1041C00007FA002830D1009428A8294615AA1AAB6E
:1041D0000BF034F8044648BB1A9B02210C330DF156
:1041E0004E001B93FEF792FDBDF84E101AA84FF437
:1041F00080720123009401940294FFF7C8FE01220B
:104200001C2349461AA8FFF731FF1B9915980BF09C
:104210004BF828A839463522159B0BF0DBF918B16D
:1042200015980BF03CF801E0013688E700256FF0A7
:104230000043CB460D950C950B9507930A95099372
:10424000069510E1CB4600256FF000430D950C95C7
:104250000B95079309930A95069516A8FEF7C2FBDE
:1042600028A815A9059A0BF01FF90746002840F069
:10427000C4800DF152031AAE0093159839463246A8
:1042800014AB0BF031F8002840F0ED80BDF8508001
:10429000B8F10B0F40F2E7801A9B03F10C021B925E
:1042A0005A88D2BA002A80F2A380044698441A9B06
:1042B0009B885BBA9BB29C420BD230464146FFF7CB
:1042C000FBFD002840F0CF801B9B013404331B937F
:1042D000EDE7002427461A9BDB885BBA9BB29F421E
:1042E00062D21AA8414622AA18ABFFF7D8FE0028CE
:1042F00040F0BA80BDF88860052E0DD01C2E1DD070
:10430000012E4BD1DDF892303446186805F096FF47
:1043100004230A90099340E0CB4502D0584630F080
:1043200027F9DDF89200BDF89010199AFFF7DBFD30
:104330008346002800F0988000202FE0069BDDF8DF
:10434000926053BB308805F073FF0546708805F016
:104350006FFF40EA0543B0880B9305F069FF0546FF
:10436000F08805F065FF40EA054330890C9305F0BD
:104370005FFF0546708905F05BFF40EA0543B089A1
:104380000D9305F055FF0546F08905F051FF062312
:104390000793012340EA05450693012001370028D1
:1043A00099D0012700260FE00027FBE71AA8414615
:1043B000FFF782FD002857D11B9A013613895BBA9B
:1043C0009BB20A3313441B931A9A13895BBA9BB2AC
:1043D0009E42EBD36FB9528952BA92B24AB143B1FD
:1043E0001AA8414622AA18ABFFF759FE08B13BE0D4
:1043F000044615980AF053FF00E0002422A8FEF7B7
:10440000F1FADDE92201DDE91623CDE90E23821A56
:1044100061EB030316461F46CDE91067059E002396
:104420003246DDE91067BB4208BFB24229BF0E9B8E
:1044300000231A1A059B28BF9B180593A4B9059B56
:10444000002B7FF40AAF0EE0180A0020400A00207B
:10445000CB4605466FF000430D900C900B900993EE
:1044600007930A900690002428A80BF045F8CB4546
:1044700002D0584630F07CF8012C0AD1099B089CE8
:104480001D930A9B1DAD1E930FCD0FC42B68236097
:104490000EE0069B012B7FF445AE089B1A46079B56
:1044A000156113600B9B53600C9B93600D9BD36055
:1044B000504633B0BDE8F08F73B50E460446352143
:1044C000043032460AF0AEFF054670B94FF4C063BF
:1044D00020708DE8180084F8306004F12C0005216C
:1044E000044A054B09F056FF00E00425284602B0B7
:1044F00070BD00BFAC8105086945020810B50446CF
:10450000012304F82C3B204609F061FF40B120460E
:1045100009F067FF20460AF034F8204609F04CFF06
:10452000002010BD2DE9F04180460E4617460025BB
:10453000EBB2BB420ED206EBC3021479404656F8EA
:104540003310224630F02AF801350028F0D12046F9
:10455000BDE8F0810020BDE8F08100000149102293
:10456000FFF7E0BF748205082DE9F0410746DFF848
:104570000C8190B0061D3B783046002B76D104A903
:104580004FF0FF320AF090FF04460028F3D106A94D
:104590000DF10E0204980BF00DF803AB00932146C9
:1045A00005AA0DF10A0304980AF09EFE059B5A889D
:1045B000998852BA95B25A8012B249BA002A88B282
:1045C00099801DDB15F4F0451AD1C8B120229A70EC
:1045D0006FF07B02DA7003F10C0401221A715D7135
:1045E0009A71DD711D725D7220461AF0E9FA002899
:1045F00006DD059B0444BDF80A20E11A914203DD63
:1046000004980AF04CFEB6E79D72DD72D8F80030CF
:104610000BA96360D8F80430A360D8F80830E360D1
:104620000C23637197F830000AF0EAFE0C9B059AA0
:104630001BBA2361538804F114015BBA5380938839
:1046400004985BBA9380D3885BBAD38013895BBA32
:10465000138153895BBA53810AF026FE304606A9BE
:10466000BDF80E20049B0AF0B5FF84E70AF044FF72
:10467000002001F045FD10B0BDE8F081A0810508E3
:1046800031498D46214B224A22489A60224A2349C9
:10469000D368884243F08073D360214B4FF000020F
:1046A0005A601A6842F001021A6005D01D4A82421F
:1046B00002D0121A2FF081FF00F054FC00F087FCAA
:1046C00019481A49884205D0194A824202D0121A62
:1046D0002FF073FF1748184A0021121A2FF093FF8A
:1046E00000F076FCFFF7B0F8144B154C1E46E41AA8
:1046F000A4080025A54204D056F825309847013576
:10470000F8E709F013FE0F4A004BDA6000ED00E015
:104710000000020884010020F0ED00E0082E0908E6
:10472000001000E08401002084010020082E090808
:10473000A0080020A0080020989F0020842D0908D0
:10474000F82D09080400FA0510A5002042F20F71A7
:1047500082B000230093009AB2F57A7F0CD20193C5
:10476000019A8A4204D800BF019A01320192F7E708
:10477000009A01320092EEE7014A024BDA60FEE74E
:104780000400FA0500ED00E0014B5868704700BFD7
:10479000001000E0034B5868C0F30800003018BF59
:1047A0000120704700ED00E010B54468A1420CD82C
:1047B000641AA24228BF224604781A6044B983686A
:1047C000029819442FF0F9FE02E040F6A17010BDE6
:1047D000002010BD70B54568A9420CD804786CB9AA
:1047E0008068049E08446D1A3060954294BF1D6035
:1047F0001A60204670BD40F6A17070BD072070BDE4
:1048000008B5037813B108462FF0B2FE002008BDAA
:1048100008B501F059F8024B0020187008BD00BF20
:10482000440A002001F04DB80128034801D100F0EE
:10483000C7BE00F0B7BE00BF348005087047000057
:1048400010B5054C0321204600F018FF204600F06B
:10485000B7FE002010BD00BF3C80050808B50BF076
:10486000E7FF012801D1FFF7EBFF0321034800F028
:1048700005FF024800F0A4FE002008BD34800508B2
:1048800008B50321064800F0F9FE054800F098FE3F
:104890000BF0CEFF012801D1FFF7D2FF002008BDA9
:1048A000348005080048704740D708080048704722
:1048B000F482050810B50C4610B9FFF7F3FF01E0CC
:1048C000FFF7F4FF00B140682060002010BD2DE923
:1048D000F041069C0E4617461D4610B9FFF7E2FF51
:1048E00001E0FFF7E3FF069731462A462346BDE87D
:1048F000F041FFF759BF08B500F024FB2DE9F04F58
:104900008246884617469B460446022A174E89B0BF
:1049100018BF00264FF00009444523D2C4EB080518
:10492000202D28BF2025684621462A462FF045FE27
:1049300087B1CAEB0403B3420CD22B44321D93421D
:1049400081BF06EB0A073F1B07F01F074DF80790D2
:1049500088BF00275A466846294614F085FD2C4436
:104960008346D9E7584609B0BDE8F08FF83F00000C
:10497000F0B506460F46144691B094B12546402C3A
:1049800028BF402539462A4668462FF016FE304695
:1049900069462A4600F051FB28B92F442E44641B77
:1049A000EBE7204600E0042011B0F0BD2DE9F74F01
:1049B000354BDFF8E0900026484508BF9946334B59
:1049C0004FF001080E7281F8098013604FF45C7398
:1049D000D380537B074643448A46144653739660FC
:1049E0001673968008464FF0FF324FF4C2718DF86F
:1049F000076014F039FD264D034607EB050B5946B9
:104A0000324607F5C270FFF779FF102102462046B3
:104A100014F02AFD10350346E91932460BF1100057
:104A2000FFF76CFF5146A0604FF4C2728AF808800D
:104A3000384600F002FB08B1042021E05846214628
:104A4000102200F0FAFA0028F6D107F108000DF163
:104A50000701424600F0F1FA0028EDD109F1090002
:104A60000DF10701424600F0E8FA0028E4D1281FC2
:104A700048440DF10701424600F0DFFA0028DBD17F
:104A800003B0BDE8F08F00BF00800008CD0002DC5D
:104A9000F03F0000004000082DE9F04F8046E7B0ED
:104AA0008A461C4615460AB1002313600CB1002348
:104AB000236005A841464FF4C2722FF07EFD05A881
:104AC00000F01AFA002850D12C4F01AE47443B4663
:104AD00007F11009324618685968083303C24B457C
:104AE0001646F7D101A800F01BFA002840D19DF925
:104AF0001030012B03D1039A0AB935BB26E00026FA
:104B00004FF4C2714FF0FF3205A8DDF80CB08DF8FC
:104B10001C6003968DF8106014F0A6FC394603461D
:104B2000324608F5C270FFF7E9FE1021024601A8DF
:104B300014F09AFC5146034632464846FFF7DEFE23
:104B400058450AD115B19DF910302B6014B19DF86C
:104B5000113023604FF45C700CE00DB1FF232B602B
:104B6000002CF7D04FF0FF33F3E747F6FF7001E07A
:104B70004FF44C7067B0BDE8F08F00BFF03F00000D
:104B800004490144C1F3CF210139C0F3CF2089B2D8
:104B900000F038BA004000002DE9F047524D534F65
:104BA000EAB000264FF0FF34791901AA03AB814621
:104BB00028460196029603940494FFF76DFFDFF8F0
:104BC0003C81824608EB070102AA404604ABFFF78E
:104BD00063FF47F6FF729245294602D1504518D12E
:104BE0001DE0904274D0824513D371D1029B0BB16A
:104BF000FF2B0ED1019B0BB1FF2B69D1039B049AB4
:104C0000934206DB64D1013362D191F90930002B64
:104C10005ED1374B53F8293008EB030061E0314691
:104C20004FF4C27209A88DF803602FF0ECFC3146F6
:104C300005A810222FF0E7FC2E4B01260C932E4BDB
:104C40002846059302238DF884308DF8A8308DF81E
:104C5000CC308DF8F0308DF814318DF838318DF876
:104C60005C318DF8803122232B9344233493AA2383
:104C70004F93CC235893EE23619366233D9388236F
:104C80008DF82C608DF821608DF820608DF82D60F6
:104C900046938DF85860FFF773FF08BB284609A9B3
:104CA0004FF4C27200F0C9F9B8B9A7F11000284456
:104CB00005A9102200F0C1F978B905F108000DF13D
:104CC0000301324600F0B9F938B94046FFF758FF02
:104CD000074B53F82930E81803E04FF0FF3000E0AD
:104CE00020466AB0BDE8F0870040000800400000A0
:104CF000C48605084252434DCD0002DC0080000806
:104D000070B5064608461C461546FFF745FF431C8E
:104D1000014606D03046294422462FF04EFC0020A2
:104D200070BD042070BD0000F0B50646E7B0052058
:104D30000F461446FFF730FF431C054636D01E4B86
:104D40001E48854208BF1846306005AEFFF718FFC1
:104D5000294630464FF4C2722FF02FFC184B2B44DB
:104D600003F1100E01AD2A4618685968083303C2D2
:104D700073451546F7D131464FF4C27238462FF0CD
:104D80001CFC1022204600212FF03DFC019A0D4B07
:104D90009A420DD1224601AB1C4603CCB4421060AE
:104DA0005160234602F10802F6D101E0042000E040
:104DB000002067B0F0BD00BF008000080040000880
:104DC000F03F0000CD0002DC2DE9F04F9846464B45
:104DD000E7B053F82150824601200F46144614F0E4
:104DE00082FBB5F5C27F3DD305EB040B3F4B0BEBCC
:104DF0000809994536D8052F34D00B2F32D005201D
:104E0000FFF7CAFE431C06462CD0684605A901AA36
:104E1000FFF78AFF30BB012F29D9BBF5C27207D03B
:104E2000009806F5C27100F5C270FFF7A1FDC8B980
:104E3000072F0FD0C9F5EB521C325AB1009B04EB7F
:104E4000080108EB03002044294428443144FFF7BB
:104E50008FFD38B90098514620442844424600F05E
:104E6000ECF8A0B1012014F046FB042438E00098CF
:104E700006F5C27100F5C27041F6F832FFF778FD11
:104E80000028EFD10098711928442246DFE7012F4E
:104E900000981BD9072F19D000F5EB5006F5EB5100
:104EA000134A1C301C31FFF763FD0028DAD10125BD
:104EB000009805A901AA8DF81E50FFF777FD04465A
:104EC0000028CFD1284614F016FB09E040442044C6
:104ED000084A4444611928443144C9EB0202E2E71C
:104EE000204667B0BDE8F08FC4860508004000008A
:104EF00074220000F03F000070B1426803689A42DB
:104F00000AD8C268054B9A4206D190F90830002BA6
:104F100014BF042000207047042070474252434DC4
:104F200060B10268064B9A4208D1C388013B9BB22C
:104F3000B3F55C7F2CBF042000207047042070472D
:104F4000CD0002DCBFF34F8F0449054BCA6802F461
:104F5000E0621343CB60BFF34F8FFEE700ED00E04C
:104F60000400FA0507B50120FCF71CFDFCF740FE24
:104F70000020FCF761FD4FF48050FCF771FD4FF409
:104F8000A050FCF763FD0320FCF7DAF90120FCF7E1
:104F9000DDF9052300934FF480001A21F02202234B
:104FA000FCF718FD0120FCF725FD3920FCF70CFE6D
:104FB0000028FAD00220FCF72DFDFCF735FD08286B
:104FC000FBD1042003B05DF804EBFCF70DB870478B
:104FD00008B500F073FC0023F02103F160420133B7
:104FE00002F56142512B82F80013F6D14FF4407064
:104FF000FBF7BAFF09F078F9FEF7FCFBBDE80840C3
:1050000000F0ECBA38B504460D46FCF7ABF9F320D6
:10501000FCF7E0F900F055FCAC420AD8204602212A
:10502000FCF70AFA082800D0FEE700F04AFC083432
:10503000F2E7FCF7A9F9002038BD2DE9F0478146D9
:105040000F46904601EB020AFCF78CF9F320FCF7BF
:10505000C1F93C464D4654451ED2AB0710D1C4EBB6
:105060000A030F2B4FF00B060BDD28462168FCF7D7
:1050700019FA082801D0013EF7D104350434EAE7D3
:105080000B2628462178FCF72BFA082801D0013E90
:10509000F7D101350134DEE73946424648462FF064
:1050A0007DFA00280CBF00240424FCF76DF920468B
:1050B000BDE8F08713B5084B0024197D2246009403
:1050C0001869234600F016FB4FF400102146FCF748
:1050D00097FC204602B010BD2C80050870B588B042
:1050E00000F03CFB224809F07AF800283ED1044643
:1050F000204B4FF0FF329A631F4B4FF400325A603F
:105100001E4E4FF000625A600C25A319197B0095C2
:10511000986800220123083400F0ECFA302CF4D116
:105120004FF480000121FCF707FD01214FF40060DE
:10513000FCF726FDFCF7B8FF782300248DF81C301F
:1051400002A84FF400730493029403940594069408
:10515000FCF7B8FF0320FCF7D3FF2046FCF7D6FF8F
:105160000120FCF7C7FF00F0FCFA204608B070BD34
:10517000540A0020002C014000E100E014810508E1
:1051800070B5154809F064F8054600F0E7FA134BCE
:105190000024DC632046FCF7ADFF2046FCF7B0FF9F
:1051A000FCF782FF4FF400602146FCF7E9FC0C4E4F
:1051B0003019083400F0DAF9382CF9D1094B4FF4E2
:1051C0000032C3F884204FF00062C3F8842000F05E
:1051D000C8FA284670BD00BF540A0020002C0140C8
:1051E0001481050800E100E02DE9F04F87B01C466E
:1051F0009DF84C3082460293149B8B460192109E80
:10520000BDF8487013B1149A0023136000F0A6FA99
:10521000934A00239046934D13604FF005094FF0D9
:10522000FF3C03934FF000024FF0FF33AB6309F1F3
:10523000FF398D4B1FFA89F91A70B9F1000F00F090
:10524000F1808A4BBBF1350FC3F800B040F0CF803E
:10525000874BEB63019B042B1DD1B7F5807F26F4B0
:10526000FF7600F2EC80802F10D8402F00F2DF8014
:10527000202F00F2DE80102F00F2DD80082F00F2D8
:10528000DC80042F8CBF0824042401E04FF48074D8
:1052900026F001062643774B119A83F800A0764B3F
:1052A000BAF1010F1A6007EB040202F1FF3292FB20
:1052B000F4F2724B04FB02F21F60714B08BF1199AC
:1052C0001A6018BF6F49704B402C1960C5F824C094
:1052D000AA6227D00CD8082C1ED004D8022C2DD0BE
:1052E000042C17D014E0102C18D0202C18D00FE06C
:1052F000B4F5007F1CD005D8802C15D0B4F5807F84
:1053000014D005E0B4F5806F14D0B4F5006F13D05D
:10531000002314E0202312E0302310E040230EE0AD
:1053200050230CE060230AE0702308E0802306E0AD
:10533000902304E0A02302E0B02300E010235349AF
:10534000CDF814C051F82A10920841F4006141F0E0
:1053500009010B43EB62039B4FF07C61C8F80030FE
:105360004B4B4C4899602723C8F814304A4BC8F877
:105370000830454B19680493C8F80C10C8F804208D
:1053800040F27542AE603221EA60012208F035FF3A
:10539000049B0246002857D1334ADDF814C0127826
:1053A000012A3FF43FAF6A6B12F00C0F7FF43AAF63
:1053B0006A6B12F0330F7FF435AF384A013A3FF48D
:1053C00031AF40F23F21686B014000297FF42AAFE2
:1053D000696B11F4405FF1D1BAF1000F1AD1264A7E
:1053E0001968264B10681A682FF0E7F812E04BF4A2
:1053F0008863AE60EB60294B013B696B3FF412AFF1
:10540000029A2AB940F23F220A40002A7FF40AAFEA
:105410000A05F1D4149B43B1124B149A5B691360D3
:10542000002211E040F21B420EE0149A0CE08024AE
:105430002EE740242CE720242AE7102428E726F032
:1054400001064FF4007426E7019200F08AF9019AF0
:10545000044B10464FF48001D96307B0BDE8F08FCC
:1054600058640240002C0140450A00205C0A0020DC
:10547000C0004000500A002060120020580A00209E
:105480004C0A0020600A0020480A0020F486050823
:1054900000640240540A0020802C0140A0860100D4
:1054A000F0B5002489B007944FF4FA760127012063
:1054B000002104220346009401940294039704946B
:1054C000FFF792FE05210422012300940194029427
:1054D000039704940020FFF787FE07AB0493009422
:1054E0000194029403940020032104220123FFF776
:1054F0007BFE013E054612D018B1012008F0B4FE33
:10550000D5E7079B02900390049001208DE82800C6
:10551000072104220346FFF767FE284600E0022029
:1055200009B0F0BD7FB500234FF400628DF8143050
:1055300000930193029303920493FCF7B5FD684630
:10554000FCF7C0FD0320FCF7DBFD0120FCF7D2FDDA
:10555000024A034BDA6307B05DF804FBC000400069
:10556000002C0140002070470020704737B50546E9
:1055700000F0F4F82A7902238DF8053001239340D6
:1055800002A9002441F8083D28688DF804408DF8F0
:1055900006408DF80740FBF7DFFF00F0E2F82046F9
:1055A00003B030BD10B5044600F0D8F821790123CE
:1055B00022688B409BB2138300F0D3F8002010BD0B
:1055C00010B5044600F0CAF82179012322688B4007
:1055D0009BB2538300F0C5F8002010BD08B5C0226F
:1055E000002105482FF00FF84FF480400121FCF70F
:1055F000C7FA002008BD00BF641200201B4B984270
:105600002AD012D8A3F54063984221D004D8A3F53C
:105610008063984228D025E0154B98421AD003F5B4
:10562000806398421ED103207047124B984215D0D8
:1056300005D8A3F58063984214D1052070470E4B1E
:1056400098420DD003F5806398420BD10820704733
:1056500001207047022070470420704706207047E1
:1056600007207047FF20704700207047001002405D
:105670000008024000180240001C024073B50646B4
:105680000C4600F06BF835682846FFF7B7FF174A5D
:10569000174B116B53F820300B43136302239C42CA
:1056A0008DF8053094BF002301238DF80430E31EEC
:1056B00018BF01238DF8063004F0FB03012B05D041
:1056C000022C02D18DF8074002E000238DF807304C
:1056D00032790123934002A941F8083D2846FBF79F
:1056E0003BFF00F03EF8002002B070BD00380240E1
:1056F000FC8605082DE9F3410D4690461F460646F7
:10570000FFF77CFF044600F029F81249124A0B6BA0
:1057100052F8244001221C430C630221AA408DF858
:1057200005108DF8041002A941F8082D30468DF8B7
:1057300006808DF80770FBF70FFF304629469DF86D
:105740002020FBF759FF00F00CF8002002B0BDE864
:10575000F08100BF00380240FC86050841F27B70F2
:10576000704741F27B707047704700000E4B9842C3
:1057700004D80E4A93681943916070470C4B9842C5
:1057800004D80A4AD3681943D1607047094B98423C
:10579000A3F1580395BF9A68DA681143114394BF87
:1057A0009960D960704700BF5860024000600240B5
:1057B000B860024058640240094B984202D853F83E
:1057C000580C7047074B984202D853F8B40C7047F6
:1057D000054B9842A3F1580394BF18685868704766
:1057E00058600240B8600240586402404FF6FF71B2
:1057F00010B50446036840681A681B6B11805A682C
:1058000043689B1AC36063695BB1FBF795FB6369EF
:10581000984206D304F10800012108F0FBFC0023A4
:10582000636110BD10B5044603689869FFF7C4FFB3
:105830002368596A084204D09869FFF797FF00234C
:10584000638323689869FFF7B7FF2368996A084262
:1058500004D09869FFF78AFF04236383236933B177
:1058600004F10C000121BDE8104008F0D3BC10BDCC
:1058700010B504460368186BFFF79EFF2368D96BC9
:10588000084204D0186BFFF771FF002323832368BD
:10589000186BFFF791FF2368196C084204D0186B4E
:1058A000FFF764FF04232383636933B104F1080025
:1058B0000121BDE8104008F0ADBC10BD41F27B7085
:1058C000704741F27B7070470020704700F1080379
:1058D00043604FF0FF32C3600361002382600360C6
:1058E000704700230361704743689A684B608A6081
:1058F0009A685160996003680861013303607047DA
:105900000A6830B5531C01D1036907E000F10803B0
:105910005C682568954201D82346F9E75A684A60D1
:1059200091608B605960036808610133036030BD8A
:105930004168826803698A6082685160596881425F
:1059400008BF5A6000220261186801381860704769
:1059500038B51546026C044632B9056845BB406847
:1059600000F078FF656024E06DB980682EF025FEB8
:10597000A268236C13446268A360934218D323681F
:105980002846A36015E0C0682EF017FE236CE2687D
:105990005B4221681A448A42E2603EBF62689B18FB
:1059A000E360022D04D1A36B13B1A36B013BA3638E
:1059B0000020A36B0133A36338BD026C10B503460E
:1059C00072B1C4681444C4604068844228BF186837
:1059D000BDE8104028BFD8600846D9682EF0EDBD5C
:1059E00010BD38B5044601F053F904F12405A36C49
:1059F000002B0BDD636A4BB1284600F031FE08B185
:105A000000F098FEA36C013BA364F0E74FF0FF3376
:105A1000A36401F04FF901F03BF904F11005636C48
:105A2000002B0BDD23694BB1284600F019FE08B1AD
:105A300000F080FE636C013B6364F0E74FF0FF33DE
:105A40006364BDE8384001F035B938B504460D4609
:105A500001F01EF9206CE36B22684343D1181B1A36
:105A600013446160E36000214FF0FF33A163A26043
:105A70006364A36455B9236983B104F1100000F095
:105A8000EFFD01280AD101F0EBF807E004F1100066
:105A9000FFF71CFF04F12400FFF718FF01F00AF9DB
:105AA000012038BDF8B5064617460D4619B100FB72
:105AB00001F3581C00E00846543013F02FFC044654
:105AC00000F1540368B15BB1002D08BF0346C66303
:105AD000036005640121FFF7B8FF84F8507000E00F
