:020000040800F2
:1000000000000220F9360008AF2C0008AD2C0008D3
:10001000AB2C0008A92C0008A72C00080000000049
:10002000000000000000000000000000A52C0008F7
:10003000A32C000800000000A12C0008F52B0008EC
:1000400041370008413700084137000841370008B0
:100050004137000841370008192700081327000816
:100060000D2700080727000801270008413700086E
:100070004137000841370008413700084137000880
:100080004137000841370008413700084137000870
:10009000413700084137000841370008D9260008D9
:1000A0004137000841370008413700084137000850
:1000B000D52B0008413700084137000841370008B8
:1000C0004137000841370008413700084137000830
:1000D0004137000841370008413700084137000820
:1000E000A3260008413700084137000841370008BF
:1000F0004137000841370008413700084137000800
:1001000041370008413700084137000841370008EF
:1001100041370008413700084137000841370008DF
:1001200041370008413700084137000841370008CF
:1001300041370008413700084137000841370008BF
:1001400041370008413700084137000841370008AF
:10015000413700084137000841370008413700089F
:10016000413700084137000841370008413700088F
:10017000212D0008212700084137000841370008D9
:0401800041370008FB
:1001840000000008783B000800006500060002003B
:08019400000000000000000063
:10019C002DE980488FB0B64AB64D1368012643F05E
:1001AC00100313602B6C4FF0000843F080532B644A
:1001BC00B14B4FF080441E60B04B04AF5A684146BF
:1001CC0042F007025A609A684FF0804042F4C052E5
:1001DC009A60AB4AD36843F08073D360A94BC3F8E1
:1001EC0004801A6832431A60A74A03F55D43DA604B
:1001FC002B6B43F480532B636B6C43F480436B6425
:10020C0001F0FCFB238C204623F001031B041B0C88
:10021C002384238CA188228B23F0020322F0730207
:10022C001B0412041B0C120C89B23343A1802283D1
:10023C00C4F834802384238B042123F008031B048B
:10024C001B0C238301F00EFB2046082101F00AFB56
:10025C0020460C2101F006FB2046314601F0CEFB76
:10026C0060228A498A4802F05AFF8A4C032E25DD07
:10027C00182202FB06F007F1100100F6EF5002F015
:10028C00C1FF002845D13B7CFF2B42D097F826308C
:10029C0003F00903092B3CD1A64607F1100CBCE86E
:1002AC000F00AEE80F009CE803008EE8030001216C
:1002BC0001F0A4FBA18A206901F0D4FA2B6B6289AE
:1002CC0007F1100113432B63238960683B61237B87
:1002DC0087F816803B7503237B7587F8178002F02F
:1002EC0023FE237B022B14D1A37BE07BD90803F0E4
:1002FC0007026368920003EB8103196A4FF00F0E3B
:10030C0090400EFA02F221EA02021A621A6A0243C1
:10031C001A620136082E04F11804A7D1002003F04C
:10032C0045F85D4BF322DA6040F62F6002F054FF83
:10033C000146A0B10378AA2B11D14BF6CC32038A1B
:10034C009BB293420BD12022544802F0E8FE544B4E
:10035C00002283F8202001201A8603F027F802F0EF
:10036C0089FF30B14FF0804293899BB243F0020376
:10037C0093814C4B4C4AF0215A604C4A4C4C82F8BD
:10038C0023100021996007211960D02382F82330B3
:10039C0001F0C4F9374B62695B6F934202D0636121
:1003AC0001F05CF9A288424B652A05D065221A71CE
:1003BC0000225A7101F052F9A37C23B13C4B00226C
:1003CC009A7401F04BF940F6AF6002F005FF054658
:1003DC00A0B10378012B11D101460B2002F080FC57
:1003EC00344B29461860082002F07AFC324B29461F
:1003FC0018600A2002F074FC304B1860304A314B04
:10040C00136023897A60052B02D101222E4B08E060
:10041C0045F25552934205D12B4B00221A702B4BAF
:10042C0001221A704AF6AA23A28901209A4202BF1D
:10043C00274B01221A7002F0CDFD4FF6FF7180B2EE
:10044C0078817B899BB28B427AD04EF6FA527B89AB
:10045C009BB2934202D101201E4B07E045F6FE22CF
:10046C007B899BB2934239D11B4B012018706BE0F6
:10047C0014ED00E00038024020000E42002004E0A1
:10048C00F0ED00E0001000E00003FA05543700081E
:10049C00E824002000250020003C0240902400208D
:1004AC007024002010E000E0BFD4010000ED00E05B
:1004BC00C8240020202300202823002024230020EF
:1004CC00B024002000000208C2350020C3350020F3
:1004DC00D1350020D0350020C13500207D2002F020
:1004EC0065FD002832D07B899BB2022B08D0032BF0
:1004FC0010D0012B11D19B4A13707B89013307E07B
:10050C00994B01221A700023A371E3717B89134468
:10051C009BB204E0954B01221A704FF6FF737B815E
:10052C007989012089B202F065FD0023A372E37280
:10053C0001F094F88E4A536F43F08073536705E0D3
:10054C0001207881798989B202F054FD002002F0F3
:10055C007FFE40B9874B1B78002B71D00123A3740D
:10056C0001F07CF86CE0844803F090F87E4E42F683
:10057C00E0638146B246814DDFF8F0812B600020AC
:10058C0002F066FE0028E5D02B68002BE2D000209C
:10059C0002F048FE42F21073984208D9784B6FF083
:1005AC007F421A600123A3710023E371E7E73378DC
:1005BC0003F0FF0B8BB9584602F034FE41F664137E
:1005CC0098420AD96E4B4FF47F421A60012384F88B
:1005DC0006B084F807B03370D1E798F8003003F018
:1005EC00FF0083B902F01EFE40F6B73398420AD9D9
:1005FC00644B1A68624B1A60012388F80030B9F119
:10060C00000FBCD0A6E75B4B1A7802F0FF0B002A58
:10061C00B5D158463B6002F005FEB0F57A7F3B68D9
:10062C00ADD3594A8AF800B082F800B04D4A82F82E
:10063C0000B0564A1168524A116001221A709EE7A6
:10064C00514BDFF824911A789846012A04D1504B6B
:10065C001A684B4B1A60FAE099F80030FBB199F824
:10066C000030012B16D1E388012B454B0CBF6FF0EA
:10067C007F424FF47F421A6001F036F8002840F0B8
:10068C00E6807B68186802F00DFB002800F0DF8024
:10069C0001F02AFC002389F8003001F009F8334BF3
:1006AC001B7803F0FF06002B40F0D18040F6383A5F
:1006BC004AF6CD3BC7F800D096B004AD4FF000031E
:1006CC00022207F1100150463B8202F09BFD0028EC
:1006DC0060D13A8A5A4513D1142202FB0651504676
:1006EC0002F090FD002855D14FF6FF7251463A8228
:1006FC0007F11000022202F051FD00284AD1013608
:10070C0040F688320AF1140A9245D7D1DFF880B04E
:10071C0002354FF0000AB24505F114053AD04FF0FE
:10072C000103174A88F80030DBF8003015F8140C78
:10073C00136015F8063C15F8132C029315F8053CBC
:10074C000AF1010A019355F80A3C009355F80E3C46
:10075C0055F8121C01F0E6F9002088F8000002F0B0
:10076C00FFFED8E7C3350020D1350020D03500205E
:10077C0000380240C1350020B5150008C8350020EE
:10078C00E835002024230020C23500202823002037
:10079C0020230020A94B00221A707B68D7F800D0C8
:1007AC001E68304602F07EFA00284AD07368A44DC9
:1007BC002B60336883F30888A24802F093FD18B9C4
:1007CC00A14802F08FFD10B14389C72B31D900F03D
:1007DC00A5FF0023022207F110010E203B8202F03C
:1007EC0011FD90B94DF201033A8A9A420DD14FF6A0
:1007FC00FF7302220E2107F110003B8202F0CEFCA7
:10080C000123A3736FF02F03E3734DF20103E2890D
:10081C009A420ED145F255528C4B1A6006225A6000
:10082C0040F271229A604AF6AA221A604CF6CC4227
:10083C001A60874A136823F0010313602B689847EA
:10084C0005E0844B4FF47F021A6000F04DFF824BA1
:10085C0000251D70814B89F800501A687D4B88F873
:10086C0000501A607E4B7F4E4FF0010883F80080D9
:10087C00336B7D4C43F0020333634FF440433B61D5
:10088C004FF00209032307F1100120467B7587F80E
:10089C00149002F049FB636A744A23F0706363623C
:1008AC00636A43F040636362636A23F0704363627C
:1008BC00636A43F040436362336B43F0005333632A
:1008CC006B4BC3F8C4246B4ADD70C3F8C8246A4A66
:1008DC0083F80280C3F8CC2440229A800C221A7030
:1008EC0006225A704FF4A062DA80644ADD72DA6034
:1008FC0002F500621A6102F580729A6102F50072CB
:10090C009A64A2F5F072DA6102F50072DA64A2F56B
:10091C00F0721A6202F500721A65A2F5F0725A6250
:10092C0002F500725A65A2F5F07283F8089083F80C
:10093C000A809A6202F500729A65A2F5F072DA6288
:10094C0002F50072DA65A2F5F4625A614032C3F81E
:10095C00A82003F174011C46494BC03241F8042F06
:10096C0020329A42FAD1474A474B484942F8043F51
:10097C0003F580538B42F9D1454B0022C4F8DC308F
:10098C003B4B15461946012084F8E20084F8E4201C
:10099C00402681F8EC20A1F8F2200132062A81F8D9
:1009AC00ED0081F8EF50C1F8F460C1F8F850C1F8CF
:1009BC00005101F12801ECD100221146402083F8AE
:1009CC00CC22A3F8D2220132062A83F8CD1283F866
:1009DC00CF12C3F8D402C3F8D812C3F8E01203F153
:1009EC002803ECD1254A00259368214E23F00103FE
:1009FC009360237A012B4FD1F268717A936B65F374
:100A0C00104309B143F480139363D36821486FF307
:100A1C0086136FF396536FF351436FF3D343D36045
:100A2C0000F00CFCE378012B4CD1052363F3440557
:100A3C000F4B45F02005DB689D6043E0DC35002062
:100A4C00B424002058390008443700080030004016
:100A5C0010E000E0E8350020C335002024230020FE
:100A6C00D03500200038024000040240A4230020AE
:100A7C00EC3600202C230020002300200000044032
:100A8C0080060440943700200010044000D004403D
:100A9C00000E0440F8360020304650F80C2FD36876
:100AAC0043F04003D36000F0C9FB737AE268002B7B
:100ABC000CBF4FF434134FF47413936344F620605B
:100ACC0002F08AFDE378012B08D17E4B0522DB680E
:100ADC009D6862F3440545F020059D60E2684CF288
:100AEC005030D368774D6FF35D7343F08043D36020
:100AFC0002F072FDD4F8DC200021116020690B4655
:100B0C00026861F3CC220260E27A002A3CD12A7A94
:100B1C002869012A026814BF012561F30102C0F2A1
:100B2C00400118BF65F301020260E2684FF4807067
:100B3C0060F30F01506291624FF4A07161F30F03E7
:100B4C0060F31F434FF41071C2F8043161F30F03CB
:100B5C00C0F220034FF41871C2F8083161F30F038F
:100B6C0060F31F434FF45871C2F80C3161F30F035B
:100B7C00C0F220034FF46071C2F8103161F30F031F
:100B8C00C0F24003C2F81431102002F02FFD0023F4
:100B9C00FB60FB6843F01003FB60FB68E2681361C9
:100BAC00494B1169013BF96002D0F968C906F8D4C8
:100BBC00032002F011FD00231D4622694FF0FF3186
:100BCC0013612269FF2653619161D3613F4A6178B9
:100BDC008B420ED21068013301680029ACBF002192
:100BEC004FF09041016011680D6152F8041B8E604A
:100BFC00EDE700231D46364AFF26607831498342D3
:100C0C000ED21068013301680029ACBF00214FF0EF
:100C1C009041016011680D6152F8041B8E60ECE785
:100C2C000A69C8781369012843F48073136105D1EC
:100C3C00284B402262F359430A691363E26800238C
:100C4C0093614FF0FF316FF0804353615160E26864
:100C5C0000285361204B936114BF4FF400634FF491
:100C6C00016343F47013916943F4405343F0080358
:100C7C000B439361936843F001039360D4F8C83439
:100C8C000BB11B6898474D2302260025012407F160
:100C9C0010003B747E74BD74FC7400F0BFFB4A23DF
:100CAC0007F110003B747E74BD74FC7400F0B6FB4D
:100CBC004B2307F110003B747E74BD74FC7400F080
:100CCC00ADFBFEE7EC360020410D0300043700209D
:100CDC0034370020030101000008008038B50446B9
:100CEC000D46002938D190F8E130032B3DD1D0F8D6
:100CFC00E812D0F8D422914213D98B1AC178C0F8DB
:100D0C00E832012902BFD0F8D8128918C0F8D812DD
:100D1C009A4228BF1A46D0F8D81292B202F0BEFB03
:100D2C0023E0D0F8C8349BB1DB698BB190F8E2209A
:100D3C00032A0DD101212846984748B1D4F8C43470
:100D4C001B692BB194F8E220032A01D12046984765
:100D5C00204601F079F908E0D0F8C4349B6923B13E
:100D6C0090F8E220032A00D19847002038BD026990
:100D7C0040F6B830536843F00203536002F02CBCC9
:100D8C0010B54CB2002C01F07F034FF02802B5BF18
:100D9C0002FB030102FB0101EC3101F5337101226D
:100DAC00DBB28A70002C4FEAD4720B704A7000EBE5
:100DBC00830006DA82691368002B04DA43F080435F
:100DCC0001E0826C136843F400131360002010BD23
:100DDC00F0B590F8AF2490F8AE3490F8B15403EB22
:100DEC00022390F8B02490F8B37402EB052590F828
:100DFC00B22490F8AC1402EB0722012790F8AD64F2
:100E0C0080F8E17001F01F0785B092B29BB2ADB2D1
:100E1C00012F04468DF808108DF80960ADF80A30E2
:100E2C00ADF80C50ADF80E20C0F8102100F0728116
:100E3C0003D3022F00F08281ECE101F06001402924
:100E4C0016D1D0F8C834002B00F0E881DB69002BF8
:100E5C0000F0E481002102A89847BDF80E301BB9C0
:100E6C00002840F05E81E5E0002800F0D78158E1D1
:100E7C00092E00F25681DFE816F0050143015401FA
:100E8C0015015401A8000A005401F800C6001A0A02
:100E9C00013A062A00F24581DFE812F007001A0039
:100EAC0033004301430164007A00D0F8CC340DF1D7
:100EBC0006011B6880789847BDF80E30402B03D094
:100ECC0094F8E230012B6FD10823ADF806306BE0BB
:100EDC00D0F8C4240DF10601D8B2926A9047A378D9
:100EEC00012B09D1237A012B06D1D4F8C4240DF19E
:100EFC000601D26A1846904702234370C4F8D00406
:100F0C0052E0D9B20329807814D006D80129D4F83C
:100F1C00CC3408D00CD85B6806E0052912D00DD370
:100F2C00EE2913D017E09B680DF1060198473BE0C2
:100F3C00DB68F9E7D4F8CC341B69F5E7D4F8CC348A
:100F4C005B69F1E7D4F8CC349B69EDE7D4F8CC3489
:100F5C00DB69002BE8D1D4F8C4340DF106021B6B0D
:100F6C00984721E08078002840F0DB80D4F8C43426
:100F7C000DF106019B6A9847AA49837B0B71C37BD1
:100F8C004B71037C08468B710A23ADF806300BE0DD
:100F9C008078002840F0C580D4F8C4340DF10601E7
:100FAC00DB6A984707234370BDF80620002A00F03F
:100FBC003581BDF80E30002B00F030819A4228BFED
:100FCC001A460146ADF806201CE1002D40F0A98020
:100FDC00002A40F0A68090F8E21003F07F05032968
:100FEC0000F09F80016980F8E45063F30A120B68EB
:100FFC001A430A6001F028F80DB1022300E0012326
:10100C0084F8E2300AE1D9B2874D0129297000F247
:10101C00888090F8E230022B02D0032B0ED080E0B7
:10102C0041B10121032380F8E01080F8E230204622
:10103C0001F0B0FA204601F007F8EFE049B90223BD
:10104C0080F8E230D0F8C43480F8E0105B68984740
:10105C00F0E790F8E0100129ECD0D0F8C4345B68CC
:10106C009847297884F8E010E1E7012A59D190F8E3
:10107C00E230022B04D0032B53D100F1E001C1E08C
:10108C006A49BFE090F8E230023B012B49D8684B2B
:10109C0001221A60D0F8E8200AB103221A60022259
:1010AC006349AFE0012B08D1C4F8E830D4F8C4345C
:1010BC0002A99B6820469847BCE7022B40F0AE8003
:1010CC0015F0FF0F40F0AA8003692D0A013D5B6803
:1010DC00042D0FD8DFE805F0030507090B000122EA
:1010EC0006E0022204E0032202E0042200E00522D2
:1010FC0062F306134F4A1360012384F8E63099E734
:10110C0090F8E220023A012A0BD8012B40F086809D
:10111C000023C9E790F8E230032B77D1EDB20A2D0A
:10112C0002D902A9204672E0D0F8C43402A99B6807
:10113C009847BDF80E30002B70D17BE7012EE9B239
:10114C000FD03CD3032E69D190F8E220022A3DD077
:10115C00032A5BD1002BA9D14A06A7D0FFF710FEBA
:10116C00A4E790F8E220022A30D0032A4ED1002BBB
:10117C0054D111F07F033FF45DAF6DB2002D4FF0F1
:10118C002802B5BF02FB030102FB0101EC3101F5A2
:10119C00337100228A70EA0F0B704A7000EB8303E4
:1011AC00002DB4BF9A699A6CC978136802396FF331
:1011BC005553012998BF43F08053136076E790F89C
:1011CC00E230022B02D0032B03D01FE04B0625D0BC
:1011DC0022E015F0800F4FF02800174A0DD001F0D7
:1011EC007F0300FB034191F8EE300BB1012300E0CB
:1011FC00002313601049022204E000FB014191F826
:10120C00CE32F2E7204600F02DFF07E002A900F0F5
:10121C0036FF03E001F08001FFF7B2FD002005B0BE
:10122C00F0BD00BF4C230020B8240020C4240020B3
:10123C00BC240020B0250020C024002037B5054672
:10124C000023114C0193032002F0C6F92A68013CDB
:10125C001369019314D0019B002BF4DA019B43F02A
:10126C0001030193019B13612968074B0A69013B38
:10127C00019202D0019AD207F8D4032002F0ACF903
:10128C00002003B030BD00BF410D030082B000232D
:10129C000093C0238DF803304FF00003012262F35A
:1012AC00C4038DF8023018238DF80030009A836C3B
:1012BC001A61C378012B08D1836C00F2AC425A61DD
:1012CC00836C1A684FF080221A6002B07047F7B531
:1012DC004F784E69012F3BD185692C682B6900939F
:1012EC00DAB2C3F3074336B966F306028DF8002071
:1012FC0067F3C4030EE08F68BE428CBF67F306022F
:10130C0066F306028DF800204FF0010288BF4F6192
:10131C0062F3C4038DF80230009B2B61C378012B60
:10132C0005D10B780A6900EB83039B695A6144F081
:10133C0004442C60C378002B36D14B69002B33D07E
:10134C0000690978426B01238B40134343632BE004
:10135C000D788F68103500EB85039B681C681B6942
:10136C000093DAB2C3F3074306B14F6167F3060289
:10137C008DF80020012262F3C4038DF8023000EBDB
:10138C008505AB68009A1A61C378012B05D10B78DF
:10139C000A6900EB83039B6C5A610B7844F004449C
:1013AC0000EB8300836C1C60002003B0F0BD30B5F3
:1013BC004C780022012C0B7807D100EB830504FA42
:1013CC0003F3AD6963F30F0207E000EB8304A56C34
:1013DC00012404FA03F363F31F422B681C040DD49D
:1013EC008C6864F30A03CC7864F39343CC8864F37D
:1013FC00995343F0805343F400432B600B78012B3B
:10140C00036905D1C17A19B9D96B0A43DA6302E0D1
:10141C00D9690A43DA61002030BD000010B5114BC8
:10142C004478DA68D243C2F30222C2F10403DBB27D
:10143C0004FA03F3D9B20F231341827813400B4300
:10144C00027809491B01DBB20A4482F800330378A5
:10145C000122580903F01F0302FA03F341F820306C
:10146C0010BD00BF00ED00E000E100E04FF0804354
:10147C00D86A013080B270474FF080439A6B02807B
:10148C00DA6B42801B6C8380704700000F4A182374
:10149C0003FB0020837DDA0717D55B070269808A7E
:1014AC0005D44FF08043DB6A0133591A89B208B96D
:1014BC0051637047042801D191637047082801D10A
:1014CC00D16370470C2808BF11647047E8240020D2
:1014DC0038B50D4614464FF080439863D9631A64AF
:1014EC0001460620FFF7D2FF29460720FFF7CEFF63
:1014FC002146BDE838400520FFF7C8BF124B984283
:10150C0011D903F5804398420FD903F580439842D3
:10151C000DD903F5804398420BD903F580339842DB
:10152C000BD8052006E0012004E0022002E0032095
:10153C0000E00420013880B2704700F1774000F5DC
:10154C007E00400C05307047FF3F0008144A30B550
:10155C0015460123936021F003030344984205D000
:10156C0050F8044B94FAA4F42C60F7E7106890FA46
:10157C00A0F001F0030119448B420ED013F8012B9B
:10158C005040082210F0010F4FEA500416BF0548D6
:10159C0020466040013AF5D1EEE7C04330BD00BFB4
:1015AC00003002402083B8ED70B5049E0C469DF8C7
:1015BC00185000284DD1B1F1006F4AD3711E21444F
:1015CC00B1F1016F45D8002A43D1B3F1006F40D37C
:1015DC005A1E3244B2F1016F3BD815F00E0F01D1F7
:1015EC00002070BD21681C4A0A40B2F1005F14BF94
:1015FC00214604F5C27111B148680A68811A15F0C8
:10160C000A0F02D00A1D964223D32068124A0240C8
:10161C00B2F1005F14BF224604F5C272907B012820
:10162C0002D09689062E14D16E0702D512689A4202
:10163C000FD12A0703D59DF81430834209D1AB078B
:10164C00CED531B165582DBA2046FFF77FFF8542C4
:10165C00C6D0012070BD00BF0000F12F70B5EFF3B4
:10166C00108672B6104C114B25689D4217D16168DB
:10167C00052001F0BFFCA168062001F0BBFCE1686D
:10168C00072001F0B7FC2169082001F0B3FC616967
:10169C00092001F0AFFC2946042001F0ABFCF30754
:1016AC0000D462B670BD00BFC8240020C0ACDE1AE6
:1016BC0008B50B4B01229A736FF02F02DA730022DC
:1016CC001A7250225A72FFF7C9FF4FF4A0410A2038
:1016DC0001F090FC0348FFF74AFB00F005FC00BF4B
:1016EC00C8240020EC36002008B50A4801F0CEFFD3
:1016FC00094B4FF0FF321A735A7330B95A22987251
:10170C00D87218745A74FFF7D3FFFFF7A7FF0020A5
:10171C0008BD00BF311B0008C824002038B5EFF30A
:10172C00108572B6042001F055FC224B224C9842D5
:10173C0010D02022FF21204601F0E8FC6FF03F037F
:10174C0023706FF0530363706FF02103A3701A239F
:10175C00E3702AE06FF03F0323706FF05303637064
:10176C006FF02103A37005201A23E37001F032FC03
:10177C00A080000CE080062001F02CFC2081000CE5
:10178C006081072001F026FCA081000CE08108207C
:10179C0001F020FC030A20746374030C000EE07447
:1017AC000920A37401F016FC6061EB0700D462B64B
:1017BC0038BD00BFC0ACDE1AC8240020F0B5274EDF
:1017CC0040013218937D4FF00F0E03F0030403F029
:1017DC00FC0303F1804303F59C339D68A4000EFACF
:1017EC0004FE25EA0E05177D9D609D6807FA04F43A
:1017FC002C439C60548A1A4B5C61558AEC4321B390
:10180C001968127F214019605968102A01EA0401F5
:10181C005960196841EA05011960996801EA0401E7
:10182C009960D96804EA0104DC6006D19A682A43FD
:10183C009A60DA681543DD600AE002F1804303F533
:10184C009E331A6815431D6002E01A6814401C6030
:10185C003044428A024B5A61F0BD00BF7024002014
:10186C00003C014010B571BB038C634C23F00103A9
:10187C001B041B0C0384038C8188028BA04222F076
:10188C0073024FEA02424FEA12429BB289B242F013
:10189C00600208D004F58064A04204D023F0020357
:1018AC0043F0030306E023F00E0321F4407143F0F0
:1018BC00030389B281800283002242630384038B79
:1018CC0023F008032FE0042931D1038C4A4C23F078
:1018DC0010031B041B0C0384038C8188028BA04215
:1018EC0022F4E6424FEA02424FEA12429BB289B21C
:1018FC0042F4C04208D004F58064A04204D023F026
:10190C00200343F0300306E023F0E00321F44061B0
:10191C0043F0300389B28180028300228263038406
:10192C00038B23F400631B041B0C03835DE0082969
:10193C002ED1038C304C23F480731B041B0C0384BA
:10194C00038C8188828BA04222F073024FEA024200
:10195C004FEA12429BB289B242F0600208D004F501
:10196C008064A04204D023F4007343F4407306E077
:10197C0023F4606321F4405143F4407389B28180B5
:10198C0082830022C2630384838B23F0080329E043
:10199C000C292AD1038C184C23F480531B041B0CE8
:1019AC000384038C8188828B23F4005322F4E64257
:1019BC0012041B04120C1B0CA04289B242F4C0424C
:1019CC0043F4405303D004F58064A04202D121F4C7
:1019DC00804189B281808283002202640384838BDC
:1019EC0023F400631B041B0C838303889BB243F01A
:1019FC008003038010BD00BF00000140038810B5B8
:101A0C00DB0769D43E4B984206D13E4A536C43F0F7
:101A1C00010353643C4B20E0B0F1804F04D1394AB0
:101A2C00136C43F0010316E0384B984204D1354A4D
:101A3C00136C43F002030EE0354B984204D1314A4B
:101A4C00136C43F0040306E0324B984204D12D4A48
:101A5C00136C43F0080313642F4B304A284CB3FB30
:101A6C00F2F20388013AA04292B29BB212D004F572
:101A7C008064A0420ED0B0F1804F0BD0A4F580341E
:101A8C00A04207D004F58064A04203D004F5806422
:101A9C00A04202D123F070039BB2214CA04206D08D
:101AAC0004F58064A0421CBF23F440739BB20380F6
:101ABC0042F20F73C362124B0285984203D003F5B6
:101ACC008063984201D1002303860123838203881B
:101ADC009BB243F08003038081B103889BB243F037
:101AEC0001030380064B984208D1B0F844306FEAEA
:101AFC0043436FEA53439BB2A0F8443010BD00BF80
:101B0C000000014000380240000E2707000400408E
:101B1C0000080040000C00400087930340420F0077
:101B2C00001000402DE9F04F89B09DF85040129FF5
:101B3C0002949DF84C400097019405900D46069236
:101B4C001E46FFF731FD8046002840F08180002FB3
:101B5C0000F08B80069B002B7DD13046FFF7CEFC2E
:101B6C00013080B2042895BF424B400453F820400A
:101B7C0000F1FF64A41BBC4228BF3C46B6F1006FC9
:101B8C0006EB040909F1FF3165D3B1F1016F62D89D
:101B9C003046FFF7B3FC384B13F800A0BAF1580FDE
:101BAC0059D8B1F1016F08D901F0A2FAC4F31002AF
:101BBC00630C12B303F1010B20E0012202FA00F0D6
:101BCC001FFA80FB0846FFF799FCBBF1000FEBD026
:101BDC008240520092B212EA0B0FE5D1274B1988C2
:101BEC001BEA010F04D15846079201F021FD079A18
:101BFC004FEA4B031FFA83FBEDE79B46204AF32188
:101C0C00D16000225A450AD002210AEBC200079289
:101C1C0001F030FA08281ED1079A0132F2E701F0E0
:101C2C005FFA01F065FA05EB040A761BAA4506EB90
:101C3C00050003D9059B8BB9296810E0012500E04C
:101C4C00002501F04DFA35B13F1B4E4655467EE757
:101C5C004FF0010809E04FF0020806E0002101F006
:101C6C00EBF90828ECD10435E0E7404609B0BDE8B3
:101C7C00F08F00BFC0370008B4370008163C024094
:101C8C00003C0240B0F5804F34BF0020012070476B
:101C9C0000207047002070470020704700207047DC
:101CAC000020704700F17840B0F5801F34BF002051
:101CBC0001207047034630B5064C1A1A914206D9DA
:101CCC0053F8045BA258AA42F7D0012030BD002083
:101CDC0030BD00BFC02500207047002070470000B9
:101CEC0024230B80004870478023002024230B8082
:101CFC0000487047562300200020704708B5074B5A
:101D0C005B6803B19847064B5B6803B19847054A7B
:101D1C0002231370044A0020137108BD48240020CC
:101D2C001C240020C0350020C43B002008B5D0F88E
:101D3C00C4345B6A9847002008BD08B5D0F8C43499
:101D4C001B6A9847002008BD08B5D0F8C434DB697D
:101D5C0003B19847002008BD08B590F8E23080F830
:101D6C00E330042380F8E230D0F8C8340BB1DB68E0
:101D7C009847002008BD10B5D0F8C83404460BB104
:101D8C001B699847032384F8E230002010BD01F052
:101D9C0023BA00000A4608B50146034801F0FEF9D3
:101DAC00003018BF012008BDC02500200F2908B540
:101DBC0008D88B1F1146044A52F8230001F04EFB41
:101DCC00024808BD002008BDD8370008EC350020BB
:101DDC0038B5044600294FD190F8E130022B3FD1A1
:101DEC00D0F80821D0F8F4309A4211D9C178D21A1F
:101DFC00012908BFD0F8F810C0F8082104BF5B18FF
:101E0C00C0F8F83092B2D0F8F81001F05FFB27E080
:101E1C00D0F80C21B2FBF3F503FB15255DB9934209
:101E2C0009D8D0F810319A4205D22A4601F04EFB5F
:101E3C00C4F8105114E0D4F8C434DB682BB194F816
:101E4C00E220032A01D1204698470523002284F87A
:101E5C00E1301146204601F021FB2046FFF716FA2F
:101E6C0094F8E630012B10D1094A236912685A60A4
:101E7C00002384F8E63008E0D0F8C4345B6923B161
:101E8C0090F8E220032A00D19847002038BD00BF0B
:101E9C00B0250020F8B504460025402700F5337125
:101EAC00012680F8CC5280F8CD52C0F8D47280F85C
:101EBC00CF52FFF77CFA84F8EC5084F8ED60C4F84C
:101ECC00F47084F8EF50A4F8F25004F1EC012046C1
:101EDC00FFF76DFAD4F8C83484F8E26013B15B688C
:101EEC00A07898470020F8BDBFF34F8F0449054BED
:101EFC00CA6802F4E0621343CB60BFF34F8FFEE776
:101F0C0000ED00E00400FA052F4B00211A6882B0A6
:101F1C0042F001021A6099601A6822F0847222F46D
:101F2C0080321A60294A5A601A6822F480221A6098
:101F3C00D960009101911A6842F480321A601A68D3
:101F4C0002F400320192009A01320092019A1AB9FD
:101F5C00009AB2F5A06FF2D11B4B1B6813F400333F
:101F6C0018BF01230193019B012B05D0184B4FF097
:101F7C0000629A6002B07047134B9A689A609A6834
:101F8C0042F400429A609A6842F4A0529A60114A54
:101F9C005A601A6842F080721A6019680A4A8901FC
:101FAC00FBD540F203710C4B1960936823F00303CB
:101FBC009360936843F002039360936803F00C03FF
:101FCC00082BFAD1D2E700BF0038024010300024B1
:101FDC0000ED00E01A3C4005003C024008B5054B02
:101FEC0053F82030DB691BB108469847C0B208BDD6
:101FFC00012008BD3039000808B5054B9B6803B1BA
:10200C009847044B9B6803B19847002008BD00BF5C
:10201C00482400201C240020074A022310B513700A
:10202C00064A00241371064B1C60064B1C60FFF71C
:10203C00E3FF204610BD00BFC0350020C43B00208C
:10204C00B8250020AC25002010B50446042300223E
:10205C0080F8E130114601F039FA2046FFF716F905
:10206C00002010BD034610B50224C3F80C21C3F8A0
:10207C00082180F8E14001F029FA002010BD10B5CC
:10208C0004468021FEF77CFE20460021FEF778FEF8
:10209C002046BDE81040FFF7F9B800002DE9F74FD6
:1020AC005C4B80461A781F46042A40F098805A4EA2
:1020BC005A4D3368002B4DD1594B1A781AB92B68ED
:1020CC00012B3CD183E0212A0FD12A68052A36D175
:1020DC00DA789978120402EB01215A781B790A44B8
:1020EC0002EB03634F4A136071E0412A27D12A683F
:1020FC00052A24D1DA789C78120402EB04225C784D
:10210C0022441C79474B02EB04641C60464B21466D
:10211C00D3F800904846FFF761FF80B904F178438B
:10212C00B3F5003F0BD3B9F1010F08D83F4B53F86F
:10213C002930DB681BB120469847002847D0002384
:10214C008DF80030694601234046ADF80630FFF7A4
:10215C0096FF3CE0012B3AD9324A03F57F231268F3
:10216C0003F6FE7302EB03392F4B49461C68D5F876
:10217C0000A02046FFF732FF0028E0D109F1784398
:10218C00B3F5003FDBD3012CD9D8284B53F824B03E
:10219C00DBF81030002BD2D00324DBF81030514682
:1021AC004846984730B9DBF81830514648469847AE
:1021BC0040B90CE0DBF810305146484698470028EF
:1021CC00F1D0BCE7631E13F0FF04E6D1B7E70023A0
:1021DC00174A2B60336003233B70137115E0072AF9
:1021EC0013D1144A00211160134A527F12F0040FCC
:1021FC000F4A03D006211970117106E008211970DD
:10220C000E4B11714FF4FA721A60002003B0BDE846
:10221C00F08F00BFC0350020B8250020AC25002071
:10222C00C02500207C230020BC250020303900086C
:10223C00C43B0020B425002056230020A8250020F4
:10224C002DE9FF414EF6C1620B880546934202D13F
:10225C008B88052B05E04EF6C062934217D18B8814
:10226C00042B14D18B88042B02D1CA88A7499BE07C
:10227C00052B40F084818C78CA880CB9A44973E191
:10228C00002401940294ADF80C4001A96CE10C7887
:10229C0014F0600400F05281202C40F072814C78D4
:1022AC00062C00F22E81DFE814F0FC000700300051
:1022BC009800D000E100E400CA88964BC2B11878AF
:1022CC00022801D0052876D148889349C5F8EC221C
:1022DC0008609249C5F8E8220A6003211970904BF6
:1022EC0085F8E110197128468E4901F0D7F848E1BC
:1022FC001A78052A01D0022A5DD18B4A012111607E
:10230C0006221A70864B1A713BE1CF88814B002F45
:10231C005DD01878804A0228DFF8008201D00928A5
:10232C004DD14E88C8F8007016607D4A7EB9032FD7
:10233C007C4998BF09241C70212314714B70032213
:10234C00412328460E708B70FFF78CFED7E0012ED0
:10235C002ED009211970754B11711868012807D9F5
:10236C0000214FF480526F4800F0D0FE6D4919E007
:10237C006F4B53F820406369002BF1D06D4B06F581
:10238C007F261B6806F6FE7603EB06363146FFF712
:10239C0025FE0028E4D16369394630469847002869
:1023AC00DED00146B8F800202846FFF75BFEE8E0D7
:1023BC000F20187010712846FFF761FEE1E0002431
:1023CC002846C8F800401460FFF759FEDAE00222F4
:1023DC001A70534B3C461A71D4E04E4B1A78062AAD
:1023EC001FD0072A2AD0032A2CD14C4A11684C4AF8
:1023FC0099B104211970484B11711A684B494D4B16
:10240C002AB948480078412801D1086801E00868D9
:10241C000122196801F070F814E00521197011718E
:10242C0010E0414A1268012A03D107221A700522D2
:10243C0006E03AB9404A527F520703D502221A707D
:10244C00374B1A7106223649AEE7324A13780A2BFB
:10245C00334B05D10221002411701C70197191E0CD
:10246C000A2111700E221A7019718AE00122294971
:10247C009AE728490A78092A00F283804FF41B73E3
:10248C00D34003F0010383F00104002B79D0244BDB
:10249C0002221C701A71204B0A701C601F4B1C60AE
:1024AC0070E01C480278092A0FD84FF41B73D340F4
:1024BC0003F0010383F001023BB1022303701848BF
:1024CC000371154B1A60154B1A601B4B9B7F03F065
:1024DC00100303F0FF0663B12846FEF748FC2A6997
:1024EC0040F6B83053686FF34103536001F074F851
:1024FC0048E04B884FF47A70584301F06DF834463D
:10250C0040E02846FFF7BBFD39E000BFD638000895
:10251C00E0370008C0350020B8250020AC2500208D
:10252C00C43B0020C0250020B4250020BC25002081
:10253C00303900087C230020562300204B780A2BCE
:10254C0010D00B2B14D0062B1CD14B881B0A212B23
:10255C0005D1CA880D49092A28BF092204E0214661
:10256C00224601E00A4901222846FFF77BFD09E0DB
:10257C008B78012B3FF61FAF054A136002E0022453
:10258C0000E00024204604B0BDE8F0817123002057
:10259C00BC25002010B50446D0F8C4341B689847FD
:1025AC00D4F8C8340BB19B689847002010BD0000CC
:1025BC008B072DE9F04107460E4607D04FF6FC730A
:1025CC000B400A4604331349FF2009E000F090FD4C
:1025DC00114BF322DA6008240025DFF838800CE078
:1025EC009A42F3D250540132FAE7082C09D158F828
:1025FC00051000F021FD04460435B54205EB07003B
:10260C00F3D300F06DFDB4F1080018BF0120BDE854
:10261C00F08100BFC0250020003C024010B50446EC
:10262C0000F066FD0E4BF322DA602046FEF766FFE3
:10263C0004460C4B0120A0401B8880B2184201D1EB
:10264C0000F0F6FF084B0221185D00F013FD044664
:10265C0000F046FDB4F1080018BF012010BD00BF0A
:10266C00003C0240163C0240B4370008014658B109
:10267C004378EE2B08D18388042B05D143881BB9F2
:10268C00024B03489B68184702207047A423002084
:10269C00EC360020704708B54FF4806000F00AFE5D
:1026AC004FF4006000F006FE4FF4805000F002FE84
:1026BC004FF4005000F0FEFD4FF4804000F0FAFDA6
:1026CC00BDE808404FF4004000F0F4BD08B52020F0
:1026DC0000F0F0FD402000F0EDFD802000F0EAFD60
:1026EC004FF4807000F0E6FDBDE808404FF4007038
:1026FC0000F0E0BD102000F0DDBD082000F0DABDD8
:10270C00042000F0D7BD022000F0D4BD012000F061
:10271C00D1BD00002DE9F04F8D4C85B0E3685A69AE
:10272C00D00700F146825A699B691340009300F070
:10273C004082C3F307431907019351D5A046A14624
:10274C002369DFF814A29E69DB6904F1480B1E4073
:10275C00360C0027002E43D0F2073AD5F9B204EB21
:10276C0081039B6C9D6823695B691D40EB0720D539
:10277C00DBF8003001259D6099F80330AB4209D19C
:10278C00DBF800301B69C3F31200D8F8D4321B1AE3
:10279C00C8F8E432DAF800306D489847E378012B3A
:1027AC0007D137B999F8E130052B02D16848FEF70B
:1027BC006DFDA80742BFDBF8003002259D6029079C
:1027CC0007D5DAF8083062489847DBF80030082261
:1027DC009A60013776080BF1040B08F12808B9E769
:1027EC00019B5A0740F1BA805A4F2369A7F118068A
:1027FC00B3469A69DB694FF0000A02EA03081FFA34
:10280C0088F8B8F1000F00F0A98018F0010F00F063
:10281C00988022695FFA8AF91169536B04EB89007D
:10282C00806923FA09F3DB01DBB2806843EA010516
:10283C000540EB071BD5536B012505FA0AF123EA7A
:10284C00010353633B6849469D60434B40485B68BA
:10285C0098479BF80330AB4209D1BAF1000F06D16F
:10286C009BF8E130042B02D13948FEF70FFD280705
:10287C0042BF3B6808259D60E90642BF3B681025B6
:10288C009D606A0642BF3B6840259D60AB0742BF16
:10289C003B6802259D602D0653D5D6F80031D6F83D
:1028AC00042109F12A099A1AD6F8F4300BEB89099C
:1028BC00934228BF13463A68033392699B0892B23D
:1028CC009A423BD9D6F80401D6F80031834235D967
:1028DC00A3B3D6F8F410181A884228BF0846E27839
:1028EC00C31C9B08BAB1D6F8F810D6F804210144E1
:1028FC00C6F8F810D6F8001102448A42C6F8042132
:10290C0019D3216996F8EC004A6B0123834022EA23
:10291C0003034B6312E081B20331D6F8F850D9F8B7
:10292C0004E04FEAA10C9445DDD055F82210013299
:10293C00CEF80010F7E73A689269C0E73B6880254B
:10294C009D600AF1010A4FEA58080437283658E707
:10295C00EC36002004370020D82300209DF80070AE
:10296C00B80742BFE36802225A61009B002B18DAB9
:10297C00A37A914A43B1D2F8DC30D2F8DC206FF361
:10298C0041036FF30003136022698B48536823F0F3
:10299C0001035360894B9B699847E3684FF00042F1
:1029AC005A61009BC3F3072529072ED500238DF808
:1029BC000F3094F8E230804E8DF80F307F4B30465C
:1029CC005B699847E26823694FF400619B68516129
:1029DC00A27AD2B1DA0718D596F8E530012B14D1CA
:1029EC009DF80F30032B10D1D6F8DC20136843F080
:1029FC0001031360D6F8DC20136843F00303136063
:102A0C006F4A136943F0060313613B0706D56B4B02
:102A1C006948DB689847E36808225A61FE0646D588
:102A2C00E36865499A6922F010029A611B6AC3F344
:102A3C004340022803F00F020FD0062832D1D1F800
:102A4C00AC00C3F30A130668C1F8AC640068C1F8A3
:102A5C00B004282000FB02121FE047F6F07018406B
:102A6C0000B3282000FB0210C3F30A13D0F8D8627D
:102A7C00D81CD1F8AC7080100021884205D0D7F852
:102A8C0000E046F821E00131F7E7282101FB024282
:102A9C00D2F8D8121944C2F8D812D2F8E4120B4466
:102AAC00C2F8E432E268936943F010039361E806DC
:102ABC0035D5226900265368304623F00103536054
:102ACC0000F094FD334667783E4AFF21BB4206D2A4
:102ADC0052F8040F01338160106B8160F6E72369B3
:102AEC004FF0FF329A61012262F30F0662F31F4628
:102AFC000B22DE615A61C3F884201A6121692E48C9
:102B0C004A640B686FF30A130B60FEF7BFFBE368B4
:102B1C004FF480525A61294B27481B699847A906E4
:102B2C0030D52369A1699A680B68C2F34102022A65
:102B3C0006BF032262F30A036FF30A030B602269D8
:102B4C00536843F480735360E1682369CA689B68D7
:102B5C00C3F34103022B09D008D8012B06D0002364
:102B6C00A3704FF40073A380092304E00123A37026
:102B7C004023A380052363F38D22CA60E3684FF4DE
:102B8C0000525A61009BC3F30745EA0607D50B4B6D
:102B9C000948DB699847E3684FF480125A61AB0629
:102BAC0007D5064B04481B6A9847E3684FF400129C
:102BBC005A6105B0BDE8F08FEC360020D823002018
:102BCC0000ED00E0003700204FF08043198A9A890D
:102BDC00890792B206D5920704D54FF6FD721A8278
:102BEC0000F048BB7047000010B5EFF3108372B6CD
:102BFC001D49DB070A6802F101020A601B4A516891
:102C0C001B4A116000D462B61A4B1A6812B11A68CA
:102C1C00013A1A60184B1A681C461AB11A68013A24
:102C2C001A6016E0154B1B782BB9154B1B7813B992
:102C3C00144B1B781BB100F0ABFC322308E0124B99
:102C4C001B7813B9114B1B781BB100F0A1FC64234A
:102C5C0023600F4A136833B1013B13601BB9FFF7B4
:102C6C00CBF9FEF725FD10BDC4350020001000E0A7
:102C7C00D4350020C8350020CC350020D1350020BB
:102C8C00C3350020C2350020C1350020D0350020CE
:102C9C00A8250020704770477047FEE7FEE7FEE767
:102CAC00FEE7704702680D4B1340B3F1005F14BF91
:102CBC00034600F5C2735BB11A6882420AD15A68A6
:102CCC00B2F1016F06D89B89063B5842584102E08D
:102CDC00184600E00020C0B2704700BF0000F12F82
:102CEC0010B500EB400001300A5C0C181309607839
:102CFC001101C9B202F00F0243EA03130A4300099F
:102D0C001B0443EA022340EA0010184310BD00F0F4
:102D1C000FBB000010B50F4CA37AABB10E4A136871
:102D2C0023F006031360FFF7EFF8A37A63B123696E
:102D3C009B68DB0708D5D4F8DC30D4F8DC206FF3C3
:102D4C0041036FF300031360044B4FF480125A617C
:102D5C0010BD00BFEC36002010ED00E0003C01403F
:102D6C000B4BDA68D1030DD4DA68D2060CD4DA68CE
:102D7C0012F0EF0F0AD1DB6813F0020F14BF07201B
:102D8C0008207047012070470520704706207047C7
:102D9C00003C024012230B8000487047FE380008AC
:102DAC0004230B80004870470424002012230B805E
:102DBC0000487047082400202DE9F041234E244F91
:102DCC000024C821022034603C6000F0BFFAB046F9
:102DDC000546002837D0418A012000F0B7FA0028B8
:102DEC0031D02A6E296813688B4204D36C68A342D5
:102DFC0034BF1C46002416698E4204D36B689E4275
:102E0C0028BF002600E00026036A1A6803689A426D
:102E1C0004D343689A4228BF002200E000226B6E64
:102E2C001B688B4205D36D68AB4234BF1D46002531
:102E3C0000E000253CB136B12AB125B19047A84736
:102E4C00C8F800403E60BDE8F08100BFE0350020CE
:102E5C00D835002030B4134B42019C18648AACB1B5
:102E6C00C4B203EB4414656824892D692C4214BF49
:102E7C00012400248C4209D1995C09B9012199548F
:102E8C0013441A8A0A3292B21A8209E09B5C3BB153
:102E9C00044B00219954C0B2012130BCFEF78EBC0A
:102EAC0030BC70477024002038B50A4A4301D4184E
:102EBC00658A8D420DD1002121820124D454C0B2E7
:102ECC00FEF77CFC4FF0804293899BB243F00203E7
:102EDC00938138BD7024002008B5024800F0BEFA7A
:102EEC00014808BD10390008EC35002008B502482F
:102EFC0000F0B4FA014808BD10390008EC35002088
:102F0C0008B5024800F0AAFA014808BD14390008B7
:102F1C00EC35002008B5024800F0A0FA014808BDC5
:102F2C001D390008EC350020F0B5002301270326DD
:102F3C000A6807FA03FC3CEA020233D15A0006FA8B
:102F4C0002F4E44305682540056091F804E0056847
:102F5C000EFA02FE4EEA050505600D79013D012DC4
:102F6C0014D885682C40846091F805E085680EFAC9
:102F7C0002FE4EEA05058560446824EA0C044460B0
:102F8C008C7945689C40A4B22C434460C46806FA12
:102F9C0002F524EA0504C460CD79C46805FA02F28E
:102FAC002243C2600133102BC2D1F0BD4209012A69
:102FBC00074B01D11B6803E0022A0CBF1B6F5B6F30
:102FCC0000F01F0023FA00F000F00100704700BF72
:102FDC000038024082B000230193054B0193019B02
:102FEC0003EB80000190019B186802B0704700BF92
:102FFC005028004082B000230193054B0193019BA4
:10300C0003EB80000190019B196002B0704700BF78
:10301C005028004007B508238DF80730FFF7A0FEB5
:10302C008DF807009DF80730012BF7D09DF80700AD
:10303C0003B05DF804FB000070B505460E46FFF7C3
:10304C00E9FF082813D10A4C236923F44073236148
:10305C00236943F400732361236943F00103236163
:10306C002E60FFF7D7FF236923F00103236170BDA6
:10307C00003C024070B5064641B1012908D0022936
:10308C000CBF4FF400754FF4407503E00D4601E0A2
:10309C004FF48075FFF7BEFF08281ED10F4C236933
:1030AC0023F440732361216929432161236923F0AF
:1030BC00F8032361236943F002031E43266123694D
:1030CC0043F480332361FFF7A5FF236923F0020348
:1030DC002361236923F0F803236170BD003C024097
:1030EC00024A136943F0004313617047003C0240ED
:1030FC00044B1A69002ABFBF034A5A6002F1883296
:10310C005A607047003C0240230167450346C9B230
:10311C000244934202D003F8011BFAE7704710B542
:10312C00431E0A44914204D011F8014B03F8014F9D
:10313C00F8E710BD70B58EB005AC21220E462046C6
:10314C00002101ADFFF7E2FF0C2212492846FFF7E0
:10315C00E6FF0023EA5C100900F13001392988BF31
:10316C0000F1570102F00F0204F8131002F13001C4
:10317C00392988BF02F1570104EB430201330C2BB0
:10318C005170E7D12046314600F068F902480EB084
:10319C0070BD00BF107AFF1FEC3500202DE9F04107
:1031AC000B4C054623780E4617461BB9FFF704FE59
:1031BC0001232370074B1B682BB13A463146284636
:1031CC00BDE8F04118474FF0FF30BDE8F08100BF7B
:1031DC00DC350020D835002070B5084C0546237826
:1031EC001BB9FFF7E9FD01232370054B1B681BB1CD
:1031FC002846BDE870401847184670BDDC350020E5
:10320C00E035002038B50C461546FFF7E5FF0146C2
:10321C0028B12A462046FFF782FF002038BD4FF028
:10322C00FF3038BD38B50346084D05EB4312148A00
:10323C00A4B243B96B8E33B10120FFF7F3FF844284
:10324C004FF00103F1D3204638BD00BF702400209D
:10325C0010B5074B42019C5CE4B230B95B8E23B1D4
:10326C000120FFF7F5FF2043C4B2204610BD00BF7C
:10327C007024002010B500210D4C0846FFF7EAFD24
:10328C0094F83C100120A1F1080359425941FFF771
:10329C00E1FD237894F82000181807D14FF08042F4
:1032AC00938923F002031B041B0C938110BD00BFF8
:1032BC007024002010B50A4B04461A68596908425C
:1032CC000CD010420AD0014658610020FFF7ECFDEB
:1032DC002146BDE810400120FFF7E6BD10BD00BF40
:1032EC00003C014043680B4A19680A40B2F1005F88
:1032FC0008BF03F5C2734BB19A89062A08D1D98944
:10330C00828991420CBF18460020704718467047BE
:10331C00002070470000F12F10B5044B1C7844437B
:10332C000020FEF7A3F86043000C10BD44240020DD
:10333C0038B5044C044DAC4203D254F8043B9847C6
:10334C00F9E738BD9C390008A039000870B50E4665
:10335C00154A002352F82350297B042902D1697B9A
:10336C00814203D00133052BF4D11BE02846FFF733
:10337C00B9FF0446B0B16389B34213D394E8090092
:10338C0098420FD86A6890420CD1AA68934209D827
:10339C00191A07D01D682DBAFEF7D8F8854201D14D
:1033AC00204670BD002070BD7839000830B5054648
:1033BC00274C284A04EB4014136B618985B00B43EE
:1033CC001363238960680293237B02A98DF80C3068
:1033DC00A37B8DF80F30FFF7A7FD4FF08042938948
:1033EC00284623F002031B041B0C9381238B8DF8BE
:1033FC000430638B01248DF80530214600238DF8B1
:10340C0006308DF80740FEF7D9F99DF807301BB14F
:10341C0001A8FEF703F80AE09DF804305A0903F0FE
:10342C001F039C4002F120030B4A42F823401C234B
:10343C008DF8043006238DF8053000238DF8063006
:10344C0001A801238DF80730FDF7E8FF05B030BD6A
:10345C00702400200038024000E100E030B5C8B113
:10346C000246131A12F8014BDBB2002CF9D10A4AAE
:10347C005B0002330B80137003235370013802235B
:10348C0010F8015F35B1591CD554C9B20233DBB207
:10349C005454F5E730BD00BFEC35002010B50023C7
:1034AC00C0F8E43280F8CD3280F8CC32C37800F525
:1034BC003374012B08BFC0F8DC12C0F8D812C0F866
:1034CC00E0222146FDF703FF002010BD10B50124BA
:1034DC0080F8ED40002480F8EC40C0F8F810C0F8FB
:1034EC00FC10C0F80441C0F8002100F1EC01FDF71C
:1034FC00EEFE204610BD000038B505461446FEF71A
:10350C006DFDB8B9012D15D80B4914F001040B4B06
:10351C0051F8252006D0116A0A0A5970090C9A70C4
:10352C00D97038BD526A2046110A5A70120C997023
:10353C00DA7038BD012038BD30390008C43B00209A
:10354C00064B0022194641F8042B1A825A608A80D5
:10355C009A729A81DA8101229A747047CC3B0020CE
:10356C0070B50446C0F30740FFF7D6FE0546C4F31A
:10357C000720FFF7D1FE0646E0B2FFF7CDFE31463D
:10358C00024600232846BDE87040FDF7A1BF0000AD
:10359C0013B50E4B1B780BB10D4B00E00D4B0021FE
:1035AC0068461C68FDF768FFBDF80020BDF80230C6
:1035BC001343BDF8042013439BB20BB1002000E071
:1035CC002046FFF7CDFF02B010BD00BFE435002050
:1035DC00C03B0020E8350020782358430723B0FB7C
:1035EC00F3F0002301339842FCD2704707B5002357
:1035FC000193019B43F020030193019B60F38A1319
:10360C000193094BDA68019B1361084B1169013B6B
:10361C00019102D001998906F8D40320FFF7DCFF51
:10362C00002003B05DF804FBEC360020410D0300D4
:10363C0038B5124B05465A69114CD20741BF114A95
:10364C009A6002F144329A60F322DA60FFF7E2FCEE
:10365C00082808BF20880C4A02BF284380B220806B
:10366C00137843F002031370FFF7D4FC034A536939
:10367C0043F001035361238838BD00BF003C024076
:10368C00163C02403B2A1908143C024010B5142287
:10369C008AB00DEB0201044640F62430FFF7B2FD70
:1036AC0040F6AC73BDF814209A420ED19DF824302C
:1036BC009DF8172002939DF825309DF81600019374
:1036CC00089B06990093079B09E04FF40021042204
:1036DC000E238DE80E0000221046024B0249A04733
:1036EC000AB010BD0000020800000808002103E029
:1036FC000B4B5B58435004310A480B4B42189A420F
:10370C00F6D30A4A02E0002342F8043B084B9A42E3
:10371C00F9D3FEF7F9FBFFF7FAFAFCF739FD70471E
:10372C00A039000800230020B0240020B024002081
:10373C00E03B0020FEE7000000000600000002084D
:10374C000000080803000000010000000000024017
:10375C000020010001000D0000000000000000002E
:10376C0001000000000002400800010002000301FB
:10377C0000000000000000000100000000000240FA
:10378C000200010002000101000000000000000026
:10379C0001000000000002400400010002000201D0
:1037AC00000000000000000000081018202830382D
:1037BC0040485058000000080040000800800008F5
:1037CC0000C0000800000108000002087238000860
:1037DC00B4380008920000000001050001008800C8
:1037EC000000070000002A00440065007600690014
:1037FC006300650049006E0074006500720066008D
:10380C0061006300650047005500490044007300E7
:10381C000000500000007B0033003700660062009F
:10382C0035006600390030002D0031006100330096
:10383C0034002D0034003900320039002D003900DD
:10384C003300330062002D00380061003200370075
:10385C006500310038003500300030003300330093
:10386C007D000000000040496E7465726E616C2032
:10387C00466C6173682020202F307830383030301F
:10388C003030302F30332A3031364B612C30312AE6
:10389C003031364B672C30312A3036344B672C3074
:1038AC00372A3132384B67004044435420466C6110
:1038BC0073682020202F307830303030303030306A
:1038CC002F30312A3031364B6700280000000001C0
:1038DC0004000100000000000000000157494E5593
:1038EC005342000000000000000000000000000037
:1038FC00000012034D00530046005400310030000C
:10390C003000EE00444655005061727469636C657A
:10391C000050686F746F6E20444655204D6F64657F
:10392C0000000000482400201C240020000002009D
:10393C0000000E0800001008050101000000040042
:10394C00000002080000060804010000000004004A
:10395C000000060800000A080402000000400000F5
:10396C000000000800400008020000006839000850
:10397C0048390008583900088C39000838390008D3
:10398C000000020000000A0800000C0805010000FD
:04399C004D3500089D
:1039A000B92D0008AD2D00080D2F0008212F0008AB
:1039B00041310008E52E0008F92E0008A12D00086D
:1039C000FF00FF0000FFFF00FF00FF00A12600082E
:1039D000A1260008A1260008A1260008A1260008AB
:1039E000A1260008A1260008792600080A06000280
:1039F00000000040010009022400010102C0320958
:103A000004000000FE0102060904000100FE01029C
:103A10000709210BFF0000101A0100000000020836
:103A200009072400010102C0320904000000FE0160
:103A300002060904000100FE01020709210BFF0034
:103A400000101A01091D0008252000084D22000859
:103A5000A9200008051D000800000000000000006B
:103A6000000000000000000000000000F91C000839
:103A7000ED1C0008B91D0008E90C0008DD1D000858
:103A8000DD0D0008551D0008A11E0008651D000879
:103A9000831D0008471D0008391D000800000000B4
:103AA00000000000040309041201000200000040AD
:103AB000042B06D05002010203010000B4380008B4
:103AC000AD1C0008A11C0008A91C0008A11D0008CD
:103AD0009B1D0008A51C0008911C000801000000A7
:103AE000F401000060000000723800089D1C00080E
:103AF000E71C000829260008BD250008E51C000871
:103B0000C11C0008B11C00080000000000000000FB
:103B100000000000000802408000040000000100D6
:103B20000000800002000700170007000C000000E2
:103B30000000000000000000000000000000000085
:103B40000000000000000000000000000000000075
:103B5000FFFFFFFF00000102030405060708090A32
:103B60000B0C0D0E0F101112131415161718191A2D
:083B70001B1C1D1E1F20280074
:043B78007856341235
:040000050800019C52
:00000001FF
